:03000000020BD11F
:0C0BD100787FE4F6D8FD758140020C1816
:06164E00013C00013D001B
:10166400E4FEEF3392B2D2B3C2B3EF25E0FF0EBE75
:0216740008F07C
:011676002251
:0512A900D201E4F51B79
:1012AE00200105751CF88003751CFAE51B54F0F53A
:1012BE001DE51BC454F0F51EAF1C1216647F017E93
:1012CE00001215D0AF1D1216647F017E001215D0CC
:0C12DE00AF1E1216647F017E000215D0C6
:0F168900C201751B011212AE7F147E000215D034
:100F1800E4F538F539C201751B361212AEE4F5381E
:100F2800C201E538C41354076007E53824E0FF80A0
:100F380002AF38EF2480F51B1212AEC201E538C4A7
:100F480013540760047F8880027F808F1B1212AEC3
:100F5800E4F5391212A90539E539C3941040F405AE
:100F680038E538C3944040B8C201751B300212AE50
:1013CE008B188A19891AAB18AA19A91A1210466015
:1013DE0016D201051AE51A7002051914F9121046F3
:1013EE00F51B1212AE80DFAB18AA19A91AE402106F
:0113FE005F8F
:101527007FC87E001215D0C201751B301212AEC2E1
:1015370001751B0C1212AEC201751B011212AE7F90
:06154700C87E000215D071
:08132A008D108B118A1289134A
:10133200E4FEEF24FE600E14600F146010240370AC
:101342000E7E80800A7E9080067E8880027E98E5EE
:10135200102EC201F51B1212AEAB11AA12A9130272
:0213620013CEA8
:1016770075D902E4F5E9F5F975DB42F5EBF5FBD22F
:02168700DE2261
:0516BF008FEB8FFB2200
:10160600C201751B341212AEC201853D1B1212AE09
:08161600C201853C1B0212AE6B
:021077008B10DC
:101079008F3C8D3D120DD5E4F511121606E4F512DB
:10108900E51075F002A4FFC3E5129FE5F06480F84E
:10109900748098500CD201751BFF1212AE05128094
:1010A900DF053D0511E511C3941040CEC201751B42
:0C10B900361212AEC201751B300212AEDE
:100DD500C201751B341212AEE4F513C201E51324EA
:100DE50080F51B1212AEC201751B801212AEE4F51E
:100DF500141212A91212A90514E514C3941040F196
:100E05000513E513C3942040D2E4F513C201E5139D
:100E15002480F51B1212AEC201751B881212AEE4B6
:100E2500F5141212A91212A90514E514C394104061
:100E3500F10513E513C3942040D2C201751B360298
:020E450012AEEB
:060C5D008F288D298B2A6F
:100C6300E4F52D120DD5E528D394014007752D0821
:100C730015281528C201751B341212AEE4F52BC2D8
:100C830001E528C454F02480252BF51B1212AEC2B3
:100C930001E52D24802529F51B1212AEE4F52CE580
:100CA3002CC3952A5022D201751BFF1212AE7F016D
:100CB3007E00121572D201751BFF1212AE7F017EE8
:100CC30000121572052C80D7052BE52BC394104019
:100CD300AEC201751B361212AEC201751B30021271
:010CE300AE62
:1015B200C201751B081212AE7FFA7E001215D0C24C
:0E15C20001751B0C1212AE7FFA7E000215D0CE
:1014D800E4F53AF53BC201751B1C1212AE7FFA7E89
:1014E800001215D0053BE53B7002053AC39408E5A8
:0714F8003A6480948040DE9D
:0114FF0022CA
:100D5D000000000100FF14AF0104020500FF110D9A
:100D6D000201030600FF11530302040A00FF11994B
:100D7D000403010B00FF11DF0505050501FF1592A9
:100D8D000607070802FF13FF0706060902FF142BCB
:100D9D000808080806FF0F780909090907FF0CE480
:100DAD000A0A0A0A03FF0B3C0B0C0C0D04FF145727
:100DBD000C0B0B0E04FF14830D0D0D0D0BFF0FCE41
:080DCD000E0E0E0E0CFF136464
:031654000134005E
:1005BD00E4F508F509F50AF50BF50C75B2FFF5B183
:1005CD007592F7F5917580FF75A0FFC282C287C243
:1005DD00A5C2A07F03121636121677120EB312158E
:1005ED00277FB41216BF30850930800630A703204F
:1005FD00A2777F0A7E0012157212161E20851975BC
:10060D000A01E53475F008A4245EF582E4340DF595
:10061D0083E493F5343085FD208019750B01E534A5
:10062D0075F008A4245FF582E4340DF583E493F5A9
:10063D00343080FD20A719750C01E53475F008A440
:10064D002460F582E4340DF583E493F53430A7FD91
:10065D0020A216E53475F008A42461F582E4340D6A
:10066D00F583E493F53430A2FDE534702FE5347550
:10067D00F008A42462F582E4340DF583E493FB7451
:10068D000193FA7402938B358A36F537F5828A8396
:10069D00E4FBFDFF1210758F080205F3E5096534C3
:1006AD00603C121689E53475F008A42462F582E4E5
:1006BD00340DF583E493FB740193FA7402938B3537
:1006CD008A36F537F5828A83E4FBFDFF1210758FAC
:1006DD0008853409E4F50AF50BF50C0205F3E50878
:1006ED0070030205F3E53475F008A42462F582E485
:1006FD00340DF583E493FB740193FA7402938B35F7
:10070D008A36F537F5828A83AB0CAD0BAF0A121022
:0D071D00758F08E4F50AF50BF50C0205F3E5
:10157200E4FDFCC3ED9FEC9E5015E4FBFA0BBB00AF
:0F158200010AEB64144A70F50DBD00010C80E402
:011591002237
:1015D000EF1F70011E144E6013E4FCFDC3ED945820
:0C15E000EC940250EB0DBD00010C80F0FB
:0115EC0022DC
:0B16B400EF1FAC0670011E4C70F62208
:1001F8003230002D0020003A0041646A75737400A3
:10020800202020202020202020004D696E00486FEB
:100218007572005765656B00446179004D6F6E74A7
:10022800680059656172004D6F64650020202042A6
:10023800656570004261636B6C696768740043614F
:100248006C6C627261746500416C776179732074BB
:1002580075726E206F666600416C61726D206F6EFC
:10026800636500416C77617973207475726E206FD5
:100278006E004D6F6E20746F20467269206F6E009D
:100288004D6F6E20746F2053617274206F6E00532F
:1002980061727420616E642053756E206F6E004F1A
:1002A8006E6C792053756E206F6E005365742074E0
:1002B800696D650053657420616C61726D005365EA
:1002C8007420686F757200536574206261636B6C8B
:1002D8006967687400416C61726D20737769746333
:1002E8006800416C61726D2064657461696C004DD1
:1002F80061696E2073776974636800204F4E20002F
:10030800204F464600416C61726D2000202020205D
:1003180020202020002020202020204F464620207A
:10032800202020202000202030363A30302D2D3259
:10033800303A3030202000202030363A30302D2D11
:1003480032333A3030202000202030373A30302DF8
:100358002D32303A3030202000202030373A3030EB
:100368002D2D32333A3030202000202030383A30DA
:10037800302D2D32303A3030202000202030383ACD
:1003880030302D2D32333A303020200020203039C3
:100398003A30302D2D32303A3030202000202030B5
:1003A800393A30302D2D32333A3030202000202099
:1003B80030303A30302D2D32333A30302020004161
:1003C80075746F204374726C004D616E75616C209A
:0503D8004374726C008B
:0C165700012E00012F010130C7013100FD
:10000300121399C201751B881212AE7BFF7A017914
:10001300F81213CED201E527C4540F2430F51B1276
:1000230012AED201E527540F2430F51B1212AE7B1A
:10003300FF7A0179FB1213CED201E524C4540F24B5
:1000430030F51B1212AED201E524540F2430F51BF8
:100053001212AE7BFF7A0179FB1213CED201E52196
:10006300C4540F2430F51B1212AED201E521540FF4
:100073002430F51B1212AE7BFF7A0179FD1213CEE9
:10008300D201E522C4540F2430F51B1212AED20163
:10009300E522540F2430F51B1212AE7F811216A7EE
:1000A300EF5401FF7BFFBF01067A0179FF80047AD9
:1000B3000179FD1213CED201E523C4540F2430F588
:1000C3001B1212AED201E523540F2430F51B12127A
:1000D300AEC201751B981212AED201751BD012125B
:1000E300AED201751BC71212AED201751BC6121216
:1000F300AED201751BDA1212AEE526B40710D20197
:10010300751BC81212AED201751BD51212AEE526AD
:10011300B40610D201751BC11212AED201751BF9C0
:100123001212AEE526B40510D201751BCE1212AE23
:10013300D201751BE51212AEE526B40410D2017587
:100143001BCB1212AED201751BC41212AEE526B43C
:100153000310D201751BC81212AED201751BFD121A
:1001630012AEE526B40210D201751BB61212AED23E
:1001730001751BFE1212AEE526B40110D201751BE8
:10018300D21212AED201751BBB1212AE12077F8FB1
:100193001115111511E511C3943C5058C201751B7B
:1001A3009C1212AED201751BCE1212AED201751B78
:1001B300C21212AED201751BB61212AED201751B5A
:1001C300C81212AED201E51175F00A842430F51B72
:1001D3001212AED201E51175F00A84E5F02430F570
:1001E3001B1212AED201751BA11212AED201751BE6
:0401F300E61212AE50
:0101F70022E5
:0603DD008F108D118B1240
:1003E300C201751B831212AE7BFF7A0279011213CD
:1003F300CEC201751B921212AE7BFF7A02790812EC
:1004030013CEC201751B921212AEE510B405127B16
:10041300FF7A0279121213CE75148275163BE4F536
:1004230017E510B404127BFF7A0279161213CE7506
:100433001484751617E4F517E510B403127BFF7ADD
:1004430002791B1213CE75148A751607751701E509
:1004530010B402127BFF7A0279201213CE75148630
:1004630075161F751701E510B401127BFF7A027927
:10047300241213CE75148875160C751701E51070C8
:10048300127BFF7A02792A1213CE75148C751663C8
:10049300E4F517E510B4C8197BFF7A02792F12131C
:1004A300CEE51175F006A424C2F514751606E4F51D
:1004B30017E510B4C9197BFF7A0279161213CEE53A
:1004C3001175F006A424C4F514751617E4F517E5A1
:1004D30010B4CA197BFF7A0279121213CEE5117593
:1004E300F006A424C6F51475163BE4F517E510B41D
:1004F30028127BFF7A0279341213CE7514C2751653
:1005030009E4F517E510B432127BFF7A02793C1245
:1005130013CE7514C4751609E4F517E510B4E61285
:100523007BFF7A0279461213CE7514FC751614E418
:10053300F517E51404FF1216A7EFC4540F75F00A5C
:10054300A4FFC007E51404FF1216A7EF540FFED053
:10055300E02EF515E512B401020515E513B4010209
:100563001515D3E5166480F8E51564809840038576
:100573001715C3E5176480F8E51564809850038563
:100583001615E4FD7F8E121698E51575F00A121004
:1005930024C454F0FFE51575F00A121024AEF0EFF1
:1005A3002EFDAF14121698E510B40507E4FD7F8005
:0A05B3001216987D807F8E021698C4
:10094C008F10C201751B8B1212AED201E510243030
:10095C00F51B1212AEC201751B8D1212AEE510758D
:10096C00F006A424C5FF1216A7EFC4540F2430F5CB
:10097C001BD2011212AEE51075F006A424C5FF12AD
:10098C0016A7EF540F2430F51BD2011212AE7BFFC9
:10099C007A0179FF1213CEE51075F006A424C7FF77
:1009AC001216A7EFC4540F2430F51BD2011212AE4D
:1009BC00E51075F006A424C7FF1216A7EF540F24F8
:1009CC0030F51BD2011212AEC201751B981212AE79
:1009DC00E51075F006A424C3FF1216A7EFB40700A8
:1009EC0050559009F5F8282873020A0A020A1202D7
:1009FC000A1A020A22020A2A020A32020A3A7BFF65
:100A0C007A027950802E7BFF7A02796080267BFFF8
:100A1C007A02796B801E7BFF7A02797A80167BFFD3
:100A2C007A027988800E7BFF7A02799780067BFFA9
:070A3C007A0279A71213CE24
:010A43002290
:100A4400E4FD7F8E121698751001E51075F006A46A
:100A540024C3FF1216A7EF7003020B29E51075F0EB
:100A640006A424C5FF1216A7C0077F851216A7AED9
:100A740007D007EF6E6003020B29E51075F006A49A
:100A840024C7FF1216A7C0077F831216A7AE07D08C
:100A940007EF6E6003020B297F811216A7EFC39440
:100AA400094003020B297F831216A7EF6533607593
:100AB400E51075F006A424C3FF1216A7EF24FE6008
:100AC4002214602314602F14603B146047240570C3
:100AD4004DD200E51075F006A424C2FFE4FD121601
:100AE40098803BD20080377F8B1216A7EFC3940601
:100AF400502CD20080287F8B1216A7EFC394075086
:100B04001DD20080197F8B1216A7EFD39405400ED7
:100B1400D200800A7F8B1216A7BF0702D2007F8300
:100B24001216A78F330510E510C394075003020A69
:080B34004E7D807F8E021698B1
:100851007F811216A7EF600302094B7F831216A74F
:10086100EF600302094B7FC71216A7EF600302096D
:100871004B7F851216A78F107FC31216A7EF14B4F2
:100881000900400302094890089675F003A4C58346
:1008910025F0C583730208B10208C70208D7020810
:1008A100E70208F7020907020917020927020937B7
:1008B100E510C394065003020948E510D394204083
:1008C10003020948807EE510C39406407AE510D3FF
:1008D10094235073806EE510C39407406AE510D3EA
:1008E10094205063805EE510C39407405AE510D30D
:1008F10094235053804EE510C39408404AE510D329
:1009010094205043803EE510C39408403AE510D34B
:1009110094235033802EE510C39409402AE510D367
:1009210094205023801EE510C39409401AE510D38A
:1009310094235013800EE510C39400400AE510D3B0
:0A09410094235003120E4712000326
:01094B002289
:101500001215ED8F107FC11216A7BF0119E510D378
:1015100094D040047F01800B7FC51216A7EF75F0B1
:061520001CA4FF1216BF1F
:0115260022A2
:1014AF008F0D8D0E8B0F120A441208517F81121669
:1014BF00A7EF653260101216897F811216A78F323F
:0914CF001200031215007F002237
:10110D008F0D8D0E8B0F7BFF7A0279B3E4FD7F017E
:10111D0012132A7BFF7A0279BCE4FD7F0212132A97
:10112D007BFF7A0279C6E4FD7F0312132A7BFF7AD7
:10113D000279CFE4FD7F0412132A7B087D807F8026
:06114D001210777F002262
:101153008F0D8D0E8B0F7BFF7A0279B3E4FD7F0138
:1011630012132A7BFF7A0279BCE4FD7F0212132A51
:101173007BFF7A0279C6E4FD7F0312132A7BFF7A91
:101183000279CFE4FD7F0412132A7B087D907F90C0
:061193001210777F00221C
:101199008F0D8D0E8B0F7BFF7A0279B3E4FD7F01F2
:1011A90012132A7BFF7A0279BCE4FD7F0212132A0B
:1011B9007BFF7A0279C6E4FD7F0312132A7BFF7A4B
:1011C9000279CFE4FD7F0412132A7B087D807F8892
:0611D9001210777F0022D6
:1011DF008F0D8D0E8B0F7BFF7A0279B3E4FD7F01AC
:1011EF0012132A7BFF7A0279BCE4FD7F0212132AC5
:1011FF007BFF7A0279C6E4FD7F0312132A7BFF7A05
:10120F000279CFE4FD7F0412132A7B087D907F982B
:06121F001210777F00228F
:10159200EB6004052E800BAB078D13E4FDAF2E121A
:0F15A20003DD120003E52EB40603E4F52E7F01EE
:0115B1002217
:1013FF008F0D8D0E8B0F7BFF7A0279DDE4FD7F0160
:10140F0012132A7BFF7A0279EAE4FD7F0212132A74
:0C141F007B087D807F801210777F002208
:10142B008F0D8D0E8B0F7BFF7A0279DDE4FD7F0133
:10143B0012132A7BFF7A0279EAE4FD7F0212132A48
:0C144B007B087D907F901210777F0022BC
:100F78008F0D8D0E8B0F7BFF7A0279F77D017F0233
:100F880012132AE50F6021E4FD7F8E1216987FC7A1
:100F98001216A7BF0104E4FD80027D017FC6121668
:100FA800987D807F8E1216987FC71216A77BFFBF89
:100FB80001067A03790380047A0379087D037F03A5
:060FC80012132A7F012232
:060CE4008F0D8D0E8B0F39
:100CEA007BFF7A03790DE4FD7F0312132AE50F6077
:100CFA0028753101AF300530850E13AB0DAD2F12BB
:100D0A0003DDE530B4CB127530C7E4F5317BFF7AE9
:100D1A00037914FD7F0212132AE531600E850E1342
:100D2A00AB0DAD2FAF301203DD8020E50D600C0551
:100D3A002FE52FD394064003752F01E50E600C159D
:100D4A002FE52FC394015003752F06AF2F12094CBC
:020D5A007F0117
:010D5C002274
:100B3C008B0DAB078D13E4FD7F281203DD7FC312F1
:100B4C0016A7EFB40A00507A900B5BF828287302B2
:100B5C000B79020B81020B89020B91020B99020B90
:100B6C00A1020BA9020BB1020BB9020BC17BFF7ADC
:100B7C0003791D80467BFF7A03792E803E7BFF7ABA
:100B8C0003793F80367BFF7A037950802E7BFF7A86
:100B9C0003796180267BFF7A037972801E7BFF7A52
:100BAC0003798380167BFF7A037994800E7BFF7A1E
:100BBC000379A580067BFF7A0379B6E4FD7F0412E6
:050BCC00132A7F012245
:101457008F0D8D0E8B0F7BFF7A0379C7E4FD7F011C
:1014670012132A7BFF7A0379D1E4FD7F0212132A34
:0C1477007B087D807F801210777F0022B0
:101483008F0D8D0E8B0F7BFF7A0379C7E4FD7F01F0
:1014930012132A7BFF7A0379D1E4FD7F0212132A08
:0C14A3007B087D907F901210777F002264
:100FCE008F0D8D0E8B0F7BFF7A0379C77D017F020C
:100FDE0012132AE50F6021E4FD7F8E1216987FC151
:100FEE001216A7BF0104E4FD80027D017FC0121618
:100FFE00987D807F8E1216987FC11216A77BFFBF39
:10100E0001067A03790380047A0379087D037F034E
:06101E0012132A7F0122DB
:101364008B0DAB078D13E4FD7F321203DDC20175D3
:101374001B9C1212AE7FC51216A7EF2430F51BD2A8
:10138400011212AE7FC51216A7EF75F01CA4FF124E
:0513940016BF7F0122DD
:0610C500C2B5C2B7D2B7AC
:1010CB00EFA2E092B6D2B5C2B5A2E192B6D2B5C24A
:1010DB00B5A2E292B6D2B5C2B5A2E392B6D2B5C270
:1010EB00B5A2E492B6D2B5C2B5A2E592B6D2B5C25C
:1010FB00B5A2E692B6D2B5C2B5A2E792B6D2B5C248
:02110B00B5220B
:0F169800AE051210C5AF061210CBC2B7D2B522E5
:1012EA00D2B6A2B692E0D2B5C2B5A2B692E1D2B552
:1012FA00C2B5A2B692E2D2B5C2B5A2B692E3D2B54F
:10130A00C2B5A2B692E4D2B5C2B5A2B692E5D2B53A
:10131A00C2B5A2B692E6D2B5C2B5A2B692E7FF228C
:0C16A700E4FE1210C51212EAC2B7D2B560
:0116B3002214
:101399007F811216A78F257F831216A78F237F853A
:1013A9001216A78F227F871216A78F217F891216FF
:1013B900A78F247F8D1216A78F277F8B1216A78FD1
:0513C9002653260F224F
:100EB3007F811216A7EF6480705AFD7F8E121698F9
:100EC3007D107F8C1216987D017F8A1216987F8879
:100ED3001216987F861216981D7F841216987F82A9
:100EE3001216987D507F801216987D057F901216FA
:100EF30098E4FCECC3943C500DEC24C0FFE4FD12D9
:100F030016980C0C80ED7D097FC41216987D807FA6
:040F13008E1216988C
:010F170022B7
:10072A00D29600C2967912786BD8FED9FAD2960080
:10073A0000000000000000000000000000000000AF
:10074A00000000000000000000000000000000009F
:10075A0000000000000078DE309605D8FB02076F23
:10076A00D205020774C20502077C7F067875D8FE97
:10077A00DFFAD29622D29612072A20050280327414
:10078A00CC1207C574441207C5120848D29612073C
:10079A002A74CC1207C574BE1207C51207E8E5070A
:1007AA008506F0A2F013A2F113A2F213A2F313F535
:1007BA00072005047FFF8002AF07227A08C3C2968A
:1007CA007B24DBFE1392967BC0DBFED296000000F0
:1007DA00000000000000000000DAE3D296227C024A
:1007EA0079077A08C3D296000000000000000000D2
:1007FA0000000000000000000000000000000000EF
:01080A0000ED
:10080B00C296000000000000000000000000000085
:10081B0000000000000000000000000000000000CD
:10082B00000000000000000000D2967B36DBFEA229
:10083B00967B8ADBFE13DAABF719DCA5227F067EEB
:06084B00FFDEFEDFFA22D1
:10122500751F3CB2907F587E021216B4151FE51F3C
:10123500D3940050EE751F64B2907FE07E011216C4
:10124500B4151FE51FD3940050EE751F64B2907F4F
:10125500B47E001216B4151FE51FD3940050EED2CC
:0112650090F8
:011266002265
:10126700754032B2907F587E021216B41540E540A1
:10127700D3940050EE754064B2907F2C7E01121615
:10128700B41540E540D3940050EE754032B2907FDC
:10129700587E021216B41540E540D3940050EED2A2
:0112A70090B6
:0112A8002223
:100E4700751196B2907F907E011216B41511E511B7
:100E5700D3940050EE7FF47E011215D0751196B22F
:100E6700907F907E011216B41511E511D3940050AE
:100E7700EE7FF47E011215D0751196B2907F907EA9
:100E8700011216B41511E511D3940050EE7FF47ECC
:100E9700011215D07511FAB2907FC87E001216B4F0
:0B0EA7001511E511D3940050EED2901D
:010EB200221D
:10161E00750D64B2907F2C7E011216B4150DE50D7A
:07162E00D3940050EED290AE
:011635002292
:10154D00753E09753FC4B2907FB47E001216B4E5A6
:10155D003F153F7002153ED3E53F9400E53E9400E4
:04156D0050E4D290E4
:011571002257
:10163600E4F50D53070775BC4000EF42BC0043BC00
:08164600807F017E000215D037
:1015ED00E4FF43BC0800000000EF7007E5BC541099
:0815FD00FF80F653BCE7AFBD0F
:0116050022C2
:100BDD000205BDE493A3F8E493A34003F68001F26C
:100BED0008DFF48029E493A3F85407240CC8C33319
:100BFD00C4540F4420C8834004F456800146F6DFE8
:100C0D00E4800B010204081020408090164EE47E13
:100C1D00019360BCA3FF543F30E509541FFEE493DC
:100C2D00A360010ECF54C025E060A840B8E493A3A3
:100C3D00FAE493A3F8E493A3C8C582C8CAC583CACE
:100C4D00F0A3C8C582C8CAC583CADFE9DEE780BE86
:011663000086
:10102400C2D530F707B2D563F0FF05F030E70CB254
:10103400D5F4048463F0FF05F080018430D502F414
:02104400042284
:10104600BB010689828A83E0225002E722BBFE02A8
:09105600E32289828A83E49322DB
:10105F00BB010689828A83F0225002F722BBFE0170
:02106F00F3226A
:061071008A838982E4730A
:00000001FF
