:030000000224993E
:0C249900787FE4F6D8FD7581690224E02C
:10000300000000000000005F00000007000700146C
:100013007F147F14242A7F2A12231308646236492B
:100023005522500005030000001C2241000041221C
:100033001C0014083E081408083E0808005030004D
:100043000008080808080060600000201008040287
:100053003E5149453E00427F40004261514946219D
:1000630041454B311814127F1027454545393C4A09
:100073004949300171090503364949493606494959
:10008300291E0036360000005636000008142241AF
:100093000014141414140041221408020151090617
:1000A300324979413E7E1111117E7F494949363EDD
:1000B300414141227F4141221C7F494949417F09F6
:1000C3000909013E4149497A7F0808087F00417FB9
:1000D30041002040413F017F081422417F404040BE
:1000E300407F020C027F7F0408107F3E4141413E66
:1000F3007F090909063E4151215E7F0919294646B8
:100103004949493101017F01013F4040403F1F20E0
:1001130040201F3F4038403F6314081463070870B2
:1001230008076151494543007F414100020408101B
:10013300200041417F00040201020440404040404E
:10014300000102040020545454787F484444383852
:1001530044444420384444487F3854545418087E57
:100163000901020C5252523E7F0804047800447D78
:1001730040002040443D007F1028440000417F4060
:10018300007C041804787C08040478384444443818
:100193007C14141408081414187C7C0804040848FC
:1001A30054545420043F4440203C4040207C1C20B5
:1001B30040201C3C4030403C44281028440C505004
:1001C300503C4464544C44000836410000007F0016
:1001D30000004136080010080810087846414678A8
:1001E300000000000000000000000000000000010B
:1001F30001010001000000000000000000000101F7
:1002030000000000000000000101000000010101E6
:1002130001010001000100010101010100010001D0
:1002230000010101010101000100000100000100C2
:1002330000000100000001000001010101010001B3
:1002430001010001000001010101010000000000A3
:100253000000000000000000000101010001000097
:100263000001000000000001000000010001010185
:100273000000000000000100010000000100000078
:100283000100010000000001000000010101000065
:100293000001000000000000010000000100000058
:1002A3000000000000010000000001000000000148
:1002B300000000000000010000000000000000003A
:1002C3000000000001010000010000010100000026
:1002D300010101010101000000010101010101010E
:1002E3000000000101010101010000000001010003
:1002F30001010101000100010101010001010001EF
:1003030000010100010001010101010101010100DE
:1003130000000001000001010101010101010001D0
:1003230001000100010100010101010101010101BD
:1003330000010001010001010101000000000100B2
:10034300000101010101000001010101010100019E
:10035300000101010101010101010001010001008E
:100363000101010101010001000100000000000082
:100373000000000000000000000100010001000077
:100383000000000000000100000001000100010066
:100393000000010001000100000100010000010054
:1003A3000100010000000100010001000101010141
:1003B3000101000000000100010001010100000033
:1003C3000001010100010001000100010100010120
:1003D300010101010100010000010101010101010D
:1003E3000101010100010001000100010000010100
:1003F30001000100000001010000000101010101F1
:1004030001010000000100010101000101010101DE
:1004130001000100010100010001010101010101CD
:1004230000010000010001000000010101000100C2
:1004330001000101000101010101010101000001AD
:10044300000001010101010100000001010101019E
:100453000101000000010000000100000000000194
:10046300010101010001010101010000010000017E
:100473000100010101010101010000000001000070
:10048300000001010101010100010100000101015E
:10049300010101010101010001010100010101014B
:1004A3000100010101000100000001000101010040
:1004B3000101010101010001000000010000000031
:1004C300010101000100000101000101010101011D
:1004D3000101010100010000000100010100010010
:1004E3000001010001000101000001000100000002
:1004F30000010101010101000000000101010101EE
:1005030000000000010101010101010101010000DE
:1005130000000001010101010001010101010000CE
:1005230001010001010101010101000101000001BC
:1005330000000101000101010100000000000101B0
:10054300010101000000010000010101000100019F
:10055300010100000101010101010100000001008E
:100563000000000001010000000000010000000085
:10057300000101010000000101010101010000006F
:100583000000000100000001000000000001000065
:100593000000000000010000000001000000000155
:1005A3000101000000000000000000000000000046
:1005B300010001010001010001000001010101012D
:1005C3000101010001000001000001010000000120
:1005D3000100000100000100010000010000010111
:1005E30000000100000101010101010000010100FF
:1005F30000010001010001010001000001000000F1
:1006030001010101010001000000010100000100DE
:1006130001000101010101000101010101000100CB
:1006230000000000010101010001010100000000C0
:1006330000000000000000000001000000000001B5
:10064300010001010101010101010000010100009C
:10065300010000010100000001010101010100008E
:10066300000001000101010100010101000001017D
:10067300010100010101010001000000000101016D
:100683000100000101000001000001000001010060
:100693000001010101000100010000000100000050
:1006A3000001000000010001000001010101000040
:1006B300010101000100000001010100000001002F
:1006C3000001010001000101000001000001000020
:1006D300000101010101000100000100010101010C
:1006E30000000000010001010101000101010000FF
:1006F30000000001000101010000010101010000EF
:1007030001010000010101010001000100000101DC
:1007130001010001000100000101000101000100CD
:1007230001010101010000010001010001010101BA
:1007330000010001000000010000000101010101AE
:1007430000010000000001010100000000000000A2
:10075300000000010001000000010101010000018F
:100763000000000001010000000100010001010080
:010773000184
:100774000164000165006400000000000000000046
:100784000000000000000000000000000000000065
:100794000000000000000000000000000000000055
:1007A4000000000000000000000000000000000045
:1007B4000000000000000000000000000000000035
:10303400E4FEEF3392B2D2B3C2B3EF25E0FF0EBE8B
:0230440008F092
:013046002267
:052C0700D200E4F55EBF
:102C0C00200005755FF88003755FFAE55E54F0F5FA
:102C1C0060E55EC454F0F561AF5F1230347F017E25
:102C2C0000122F9AAF601230347F017E00122F9A5F
:0C2C3C00AF611230347F017E00022F9A3D
:0F305900C200755E01122C0C7F147E00022F9AAC
:1027E800E4F562F563C200755E36122C0CE4F562FE
:1027F800C200E562C41354076007E56224E0FF8065
:1028080002AF62EF2480F55E122C0CC200E562C4B0
:1028180013540760047F8880027F808F5E122C0C1F
:10282800E4F563122C070563E563C3941040F405CF
:1028380062E562C3944040B8C200755E30022C0C59
:102D6C008B328A338934AB32AA33A934120CA66065
:102D7C0016D2000534E5347002053314F9120CA692
:102D8C00F55E122C0C80DFAB32AA33A934E4020CB2
:012D9C00BF77
:102EF1007FC87E00122F9AC200755E30122C0CC260
:102F010000755E0C122C0CC200755E01122C0C7F38
:062F1100C87E00022F9AA9
:082CC8008D2A8B2B8A2C892D2B
:102CD000E4FEEF24FE600E14600F146010240370F5
:102CE0000E7E80800A7E9080067E8880027E98E537
:102CF0002A2EC200F55E122C0CAB2BAA2CA92D0299
:022D00002D6C38
:1030470075D902E4F5E9F5F975DB42F5EBF5FBD245
:02305700DE2277
:05309E008FEB8FFB2207
:102FEC00C200755E34122C0CC20085655E122C0C6E
:082FFC00C20085645E022C0C8A
:022944008B2ADC
:102946008F648D651226A5E4F52B122FECE4F52C89
:10295600E52A75F002A4FFC3E52C9FE5F06480F834
:10296600748098500CD200755EFF122C0C052C80DA
:10297600DF0565052BE52BC3941040CEC200755EBE
:0C29860036122C0CC200755E30022C0CC6
:1026A500C200755E34122C0CE4F52DC200E52D2414
:1026B50080F55E122C0CC200755E80122C0CE4F5C0
:1026C5002E122C07122C07052EE52EC3941040F16F
:1026D500052DE52DC3942040D2E4F52DC200E52D4E
:1026E5002480F55E122C0CC200755E88122C0CE459
:1026F500F52E122C07122C07052EE52EC39410403B
:10270500F1052DE52DC3942040D2C200755E360239
:022715002C0C8A
:062525008F0F8D108B11D9
:10252B00E4F5141226A5E50FD394014007751408A2
:10253B00150F150FC200755E34122C0CE4F512C288
:10254B0000E50FC454F024802512F55E122C0CC24A
:10255B0000E51424802510F55E122C0CE4F513E530
:10256B0013C395115022D200755EFF122C0C7F0104
:10257B007E00122F3CD200755EFF122C0C7F017E69
:10258B0000122F3C051380D70512E512C39410409F
:10259B00AEC200755E36122C0CC200755E30022C7A
:0125AB000C23
:102F7C00C200755E08122C0C7FFA7E00122F9AC2CA
:0E2F8C0000755E0C122C0C7FFA7E00022F9A4C
:102FB700E4F51FC200755E1C122C0C7FFA7E00120E
:0B2FC7002F9A051FE51FC3940840E887
:012FD20022DC
:102D9D00C200755E20122C0C7F017E00122F9AC28C
:102DAD0000755E24122C0C7F017E00122F9AC2003A
:0D2DBD00755E26122C0C7F017E00022F9AFD
:0F306800C200755E20122C0C7F017E00022F9A91
:10299200E4F52BE52BC394205012C200E52B4480B2
:1029A200F55E122C0CC200755E808012C200E52B0F
:1029B20024E04480F55E122C0CC200755E88122C55
:1029C2000CE4F52A122C07122C07052AE52AC394D7
:0C29D2000840F1052BE52BC3944040B7F2
:0129DE0022D6
:041BC9008D588B594F
:101BCD00E4F55AF55BFEFDEFD3947F40047F7F80F3
:101BDD0008EFC394005002E4FFE558D3943F40054D
:101BED0075583F800AE558C394005003E4F558EF4B
:101BFD00C4540FF55AE558C39420400C74E0255891
:101C0D00F5587408255AF55AEF540FF55BC200E5E7
:101C1D00582480F55E122C0CC200E55A2480F55E26
:101C2D00122C0C75F040E55AA42400F582E5F03431
:101C3D0000F58375F002E558120D6CE0FE75F0406D
:101C4D00E55AA42401F582E5F03400F58375F00220
:101C5D00E558120D6CE0FDE55BC39408505DE55948
:101C6D00B40112AF5B7480A807088002C313D8FCBF
:101C7D004EF55C8027E5597013AF5B7480A807089B
:101C8D008002C313D8FCF45EF55C8010AF5B7480EA
:101C9D00A807088002C313D8FC6EF55C75F040E50B
:101CAD005AA42400F582E5F03400F58375F002E5C1
:101CBD0058120D6CE55CF08D5D8064E559B401152D
:101CCD00E55B24F8FF7480A807088002C313D8FCD5
:101CDD004DF55D802DE5597016E55B24F8FF748098
:101CED00A807088002C313D8FCF45DF55D8013E5E9
:101CFD005B24F8FF7480A807088002C313D8FC6D1D
:101D0D00F55D75F040E55AA42401F582E5F0340047
:101D1D00F58375F002E558120D6CE55DF08E5CD221
:0F1D2D0000855C5E122C0CD200855D5E022C0CD2
:0622BB008B4D8A4E894F95
:1022C1008D52855153755401E4F555F556AB4DAA20
:0B22D1004EA94F120CA6700302236EF2
:1022DC00054FE54F7002054E14F9120CA6F557C3C5
:1022EC0094204007E557D3947E400375577F74E0E4
:1022FC002557F557E554701BF555E5532555FDE469
:10230C00FBAF52121BC90555E555C3940540EB05AF
:10231C00528003E4F554E4F556E556C3940350A2F9
:10232C00E4F55575F00FE557A424E3F582E5F03498
:10233C0001F58375F005E556120D6CE5822555F512
:10234C0082E43583F583E493FBE5532555FDAF52C9
:10235C00121BC90555E555C3940540C705520556D2
:02236C0080B738
:01236E00224C
:06236F008F4D8D4E8B4FD7
:10237500854E51E4F552E54DC39420400C74E0259B
:102385004DF54D74082551F551C200E54D2480F5F4
:102395005E122C0CC200E5512480F55E122C0CE473
:1023A500F552C3E54F954EFFE552D39F5050D200ED
:1023B50085505E122C0CD20085505E122C0CE55116
:1023C5002552FFE433FEEF7806C333CE33CED8F97A
:1023D500FF2400F58274003EF58375F002E54D1289
:1023E5000D6CE550F074012FF58274003EF5837590
:0E23F500F002E54D120D6CE550F0055280A48B
:0124030022B6
:1025AC00000F0F0100FF2E7A0104020500FF2A27FD
:1025BC000201030600FF2A6D0302040A00FF2AB37E
:1025CC000403010B00FF2AF90505050501FF2F5C2B
:1025DC000607070802FF2DCA0706060902FF2DF69B
:1025EC000808080806FF28480909090907FF262CCE
:1025FC000A0A0A0A03FF24040B0C0C0D04FF2E22FA
:10260C000C0B0B0E04FF2E4E0D0D0D0D0BFF289E0B
:10261C000E0E0E0E0CFF2D020F00000100FF28F411
:030B7E00011B0058
:101D3C00E4F522F523F524F525F52675B2FFF5B16A
:101D4C007592F7F5917580FF75A0FFC282C287C2AC
:101D5C00A5C2A07F0312301C123047122783122E0B
:101D6C00F17FB412309E30850930800630A70320F5
:101D7C00A2777F0A7E00122F3C1230042085197541
:101D8C002401E51B75F008A424ADF582E43425F597
:101D9C0083E493F51B3085FD208019752501E51B27
:101DAC0075F008A424AEF582E43425F583E493F5AC
:101DBC001B3080FD20A719752601E51B75F008A4C2
:101DCC0024AFF582E43425F583E493F51B30A7FDAD
:101DDC0020A216E51B75F008A424B0F582E4342586
:101DEC00F583E493F51B30A2FDE51B702FE51B7505
:101DFC00F008A424B1F582E43425F583E493FB7454
:101E0C000193FA7402938B1C8A1DF51EF5828A834A
:101E1C00E4FBFDFF120D7C8F22021D72E523651B76
:101E2C00603C123059E51B75F008A424B1F582E42E
:101E3C003425F583E493FB740193FA7402938B1CA1
:101E4C008A1DF51EF5828A83E4FBFDFF120D7C8F43
:101E5C0022851B23E4F524F525F526021D72E522C7
:101E6C007003021D72E51B75F008A424B1F582E421
:101E7C003425F583E493FB740193FA7402938B1C61
:101E8C008A1DF51EF5828A83AB26AD25AF24120D73
:0D1E9C007C8F22E4F524F525F526021D7249
:102F3C00E4FDFCC3ED9FEC9E5015E4FBFA0BBB00CB
:0F2F4C00010AEB64144A70F50DBD00010C80E41E
:012F5B002253
:102F9A00EF1F70011E144E6013E4FCFDC3ED94583C
:0C2FAA00EC940250EB0DBD00010C80F017
:012FB60022F8
:0B309300EF1FAC0670011E4C70F6220F
:101804003230002D0020003A0041646A7573740080
:10181400202020202020202020004D696E00486FC9
:101824007572005765656B00446179004D6F6E7485
:10183400680059656172004D6F6465002020204284
:10184400656570004261636B6C696768740043612D
:101854006C6C627261746500416C77617973207499
:1018640075726E206F666600416C61726D206F6EDA
:10187400636500416C77617973207475726E206FB3
:101884006E004D6F6E20746F20467269206F6E007B
:101894004D6F6E20746F2053617274206F6E00530D
:1018A40061727420616E642053756E206F6E004FF8
:1018B4006E6C792053756E206F6E005365742074BE
:1018C400696D650053657420616C61726D005365C8
:1018D4007420686F757200536574206261636B6C69
:1018E4006967687400416C61726D20737769746311
:1018F4006800416C61726D2064657461696C004DAF
:1019040061696E2073776974636800204F4E20000C
:10191400204F464600416C61726D2000202020203B
:1019240020202020002020202020204F4646202058
:10193400202020202000202030363A30302D2D3237
:10194400303A3030202000202030363A30302D2DEF
:1019540032333A3030202000202030373A30302DD6
:101964002D32303A3030202000202030373A3030C9
:101974002D2D32333A3030202000202030383A30B8
:10198400302D2D32303A3030202000202030383AAB
:1019940030302D2D32333A303020200020203039A1
:1019A4003A30302D2D32303A303020200020203093
:1019B400393A30302D2D32333A3030202000202077
:1019C40030303A30302D2D32333A3030202000413F
:1019D40075746F204374726C004D616E75616C2078
:0519E4004374726C0069
:0C0B81000115000116010117C701180042
:10160F00122D37C200755E88122C0C7BFF7A187969
:10161F0004122D6CD200E50EC4540F2430F55E1267
:10162F002C0CD200E50E540F2430F55E122C0C7BDF
:10163F00FF7A187907122D6CD200E50BC4540F24D2
:10164F0030F55E122C0CD200E50B540F2430F55EF2
:10165F00122C0C7BFF7A187907122D6CD200E5083B
:10166F00C4540F2430F55E122C0CD200E508540F31
:10167F002430F55E122C0C7BFF7A187909122D6C31
:10168F00D200E509C4540F2430F55E122C0CD200A1
:10169F00E509540F2430F55E122C0C7F8112308631
:1016AF00EF5401FF7BFFBF01067A18790B80047A94
:1016BF00187909122D6CD200E50AC4540F2430F5A5
:1016CF005E122C0CD200E50A540F2430F55E122C5A
:1016DF000CC200755E98122C0CD200755ED0122CC5
:1016EF000CD200755EC7122C0CD200755EC6122C80
:1016FF000CD200755EDA122C0CE50DB40710D20077
:10170F00755EC8122C0CD200755ED5122C0CE50D2F
:10171F00B40610D200755EC1122C0CD200755EF9A2
:10172F00122C0CE50DB40510D200755ECE122C0CE8
:10173F00D200755EE5122C0CE50DB40410D20075C5
:10174F005ECB122C0CD200755EC4122C0CE50DB4BE
:10175F000310D200755EC8122C0CD200755EFD12FC
:10176F002C0CE50DB40210D200755EB6122C0CD203
:10177F0000755EFE122C0CE50DB40110D200755EE3
:10178F00D2122C0CD200755EBB122C0C121EFE8FC7
:10179F002B152B152BE52BC3943C5058C200755EAF
:1017AF009C122C0CD200755ECE122C0CD200755EE2
:1017BF00C2122C0CD200755EB6122C0CD200755EC4
:1017CF00C8122C0CD200E52B75F00A842430F55E7C
:1017DF00122C0CD200E52B75F00A84E5F02430F5BD
:1017EF005E122C0CD200755EA1122C0CD200755E0D
:0417FF00E6122C0CB6
:0118030022C2
:0619E9008F2A8D2B8B2CD0
:1019EF00C200755E83122C0C7BFF7A18790D122DB5
:1019FF006CC200755E92122C0C7BFF7A1879141250
:101A0F002D6CC200755E92122C0CE52AB405127B68
:101A1F00FF7A18791E122D6C752E8275303BE4F506
:101A2F0031E52AB404127BFF7A187922122D6C75D6
:101A3F002E84753017E4F531E52AB403127BFF7A53
:101A4F00187927122D6C752E8A753007753101E5BF
:101A5F002AB402127BFF7A18792C122D6C752E8600
:101A6F0075301F753101E52AB401127BFF7A1879A1
:101A7F0030122D6C752E8875300C753101E52A707A
:101A8F00127BFF7A187936122D6C752E8C75306398
:101A9F00E4F531E52AB4C8197BFF7A18793B122D8A
:101AAF006CE52B75F006A424C2F52E753006E4F50F
:101ABF0031E52AB4C9197BFF7A187922122D6CE50A
:101ACF002B75F006A424C4F52E753017E4F531E517
:101ADF002AB4CA197BFF7A18791E122D6CE52B7563
:101AEF00F006A424C6F52E75303BE4F531E52AB493
:101AFF0028127BFF7A187940122D6C752EC2753023
:101B0F0009E4F531E52AB432127BFF7A18794812CD
:101B1F002D6C752EC4753009E4F531E52AB4E61243
:101B2F007BFF7A187952122D6C752EFC753014E4E8
:101B3F00F531E52E04FF123086EFC4540F75F00A0D
:101B4F00A4FFC007E52E04FF123086EF540FFED01E
:101B5F00E02EF52FE52CB40102052FE52DB401027F
:101B6F00152FD3E5306480F8E52F64809840038506
:101B7F00312FC3E5316480F8E52F648098500385D9
:101B8F00302FE4FD7F8E123077E52F75F00A120C9F
:101B9F0084C454F0FFE52F75F00A120C84AEF0EFF9
:101BAF002EFDAF2E123077E52AB40507E4FD7F80B6
:0A1BBF001230777D807F8E023077B0
:1020CB008F2AC200755E8B122C0CD200E52A2430AD
:1020DB00F55E122C0CC200755E8D122C0CE52A7568
:1020EB00F006A424C5FF123086EFC4540F2430F53C
:1020FB005ED200122C0CE52A75F006A424C5FF1243
:10210B003086EF540F2430F55ED200122C0C7BFF7F
:10211B007A18790B122D6CE52A75F006A424C7FFEB
:10212B00123086EFC4540F2430F55ED200122C0C03
:10213B00E52A75F006A424C7FF123086EF540F244E
:10214B0030F55ED200122C0CC200755E98122C0C6E
:10215B00E52A75F006A424C3FF123086EFB40700FE
:10216B005055902174F8282873022189022191027D
:10217B0021990221A10221A90221B10221B97BFFE0
:10218B007A18795C802E7BFF7A18796C80267BFF1E
:10219B007A187977801E7BFF7A18798680167BFFF9
:1021AB007A187994800E7BFF7A1879A380067BFFCF
:0721BB007A1879B3122D6CB4
:0121C20022FA
:1021C300E4FD7F8E123077752A01E52A75F006A4A7
:1021D30024C3FF123086EF70030222A8E52A75F0AC
:1021E30006A424C5FF123086C0077F85123086AE51
:1021F30007D007EF6E60030222A8E52A75F006A454
:1022030024C7FF123086C0077F83123086AE07D003
:1022130007EF6E60030222A87F81123086EFC3941A
:102223000940030222A87F83123086EF651A607586
:10223300E52A75F006A424C3FF123086EF24FE605E
:102243002214602314602F14603B1460472405702C
:102253004DD209E52A75F006A424C2FFE4FD12302D
:1022630077803BD20980377F8B123086EFC3940689
:10227300502CD20980287F8B123086EFC3940750ED
:102283001DD20980197F8B123086EFD39405400E3F
:10229300D209800A7F8B123086BF0702D2097F835F
:1022A3001230868F1A052AE52AC3940750030221A8
:0822B300CD7D807F8E023077A3
:101FD0007F81123086EF60030220CA7F8312308631
:101FE000EF60030220CA7FC7123086EF6003022031
:101FF000CA7F851230868F2A7FC3123086EF14B4D1
:10200000090040030220C790201575F003A4C58382
:1020100025F0C5837302203002204602205602209C
:10202000660220760220860220960220A60220B6B2
:10203000E52AC3940650030220C7E52AD394204022
:10204000030220C7807EE52AC39406407AE52AD39E
:1020500094235073806EE52AC39407406AE52AD31F
:1020600094205063805EE52AC39407405AE52AD342
:1020700094235053804EE52AC39408404AE52AD35E
:1020800094205043803EE52AC39408403AE52AD381
:1020900094235033802EE52AC39409402AE52AD39D
:1020A00094205023801EE52AC39409401AE52AD3C0
:1020B00094235013800EE52AC39400400AE52AD3E6
:0A20C0009423500312271712160F85
:0120CA0022F3
:102EA300122FD38F2A7FC1123086BF0119E52AD38F
:102EB30094D040047F01800B7FC5123086EF75F0FC
:062EC3001CA4FF12309E6A
:012EC90022E6
:102E7A008F278D288B291221C3121FD07F811230F0
:102E8A0086EF651960101230597F811230868F19CA
:092E9A0012160F122EA37F002274
:1028F4008F278D288B29122D9D122992E50EC45401
:102904000F75F00AA424D0FFE5F03407FEE50E5459
:102914000F7C002FFFEC3EFEC006C007E508C45440
:102924000F75F00AA4FFE508540F2FFBEC35F0FAFD
:10293400E50BFDD007D006120F301230687F00225D
:102A27008F278D288B297BFF7A1879BFE4FD7F01DB
:102A3700122CC87BFF7A1879C8E4FD7F02122CC8D4
:102A47007BFF7A1879D2E4FD7F03122CC87BFF7ACB
:102A57001879DBE4FD7F04122CC87B087D807F801A
:062A67001229447F002249
:102A6D008F278D288B297BFF7A1879BFE4FD7F0195
:102A7D00122CC87BFF7A1879C8E4FD7F02122CC88E
:102A8D007BFF7A1879D2E4FD7F03122CC87BFF7A85
:102A9D001879DBE4FD7F04122CC87B087D907F90B4
:062AAD001229447F002203
:102AB3008F278D288B297BFF7A1879BFE4FD7F014F
:102AC300122CC87BFF7A1879C8E4FD7F02122CC848
:102AD3007BFF7A1879D2E4FD7F03122CC87BFF7A3F
:102AE3001879DBE4FD7F04122CC87B087D807F8886
:062AF3001229447F0022BD
:102AF9008F278D288B297BFF7A1879BFE4FD7F0109
:102B0900122CC87BFF7A1879C8E4FD7F02122CC801
:102B19007BFF7A1879D2E4FD7F03122CC87BFF7AF8
:102B29001879DBE4FD7F04122CC87B087D907F981F
:062B39001229447F002276
:102F5C00EB60040515800BAB078D2DE4FDAF15124E
:0F2F6C0019E912160FE515B40603E4F5157F01F8
:012F7B002233
:102DCA008F278D288B297BFF7A1879E9E4FD7F010B
:102DDA00122CC87BFF7A1879F6E4FD7F02122CC800
:0C2DEA007B087D807F801229447F00223E
:102DF6008F278D288B297BFF7A1879E9E4FD7F01DF
:102E0600122CC87BFF7A1879F6E4FD7F02122CC8D3
:0C2E16007B087D907F901229447F0022F1
:102848008F278D288B297BFF7A1979037D017F02D9
:10285800122CC8E5296021E4FD7F8E1230777FC7EE
:10286800123086BF0104E4FD80027D017FC612306C
:10287800777D807F8E1230777FC71230867BFFBFCF
:1028880001067A19790F80047A1979147D037F0378
:06289800122CC87F012292
:06262C008F278D288B2989
:102632007BFF7A197919E4FD7F03122CC8E5296022
:1026420028751801AF17051785282DAB27AD16126F
:1026520019E9E517B4CB127517C7E4F5187BFF7AB1
:10266200197920FD7F02122CC8E518600E85282DED
:10267200AB27AD16AF171219E98020E527600C05CC
:1026820016E516D394064003751601E528600C156D
:1026920016E516C394015003751606AF161220CB29
:0226A2007F01B6
:0126A4002213
:102404008B27AB078D2DE4FD7F281219E97FC312BA
:102414003086EFB40A00507A902423F828287302F7
:102424002441022449022451022459022461022431
:10243400690224710224790224810224897BFF7AAF
:1024440019792980467BFF7A19793A803E7BFF7A95
:1024540019794B80367BFF7A19795C802E7BFF7A61
:1024640019796D80267BFF7A19797E801E7BFF7A2D
:1024740019798F80167BFF7A1979A0800E7BFF7AF9
:102484001979B180067BFF7A1979C2E4FD7F0412C1
:052494002CC87F0122AD
:102E22008F278D288B297BFF7A1979D3E4FD7F01C7
:102E3200122CC87BFF7A1979DDE4FD7F02122CC8BF
:0C2E42007B087D807F801229447F0022E5
:102E4E008F278D288B297BFF7A1979D3E4FD7F019B
:102E5E00122CC87BFF7A1979DDE4FD7F02122CC893
:0C2E6E007B087D907F901229447F002299
:10289E008F278D288B297BFF7A1979D37D017F02B3
:1028AE00122CC8E5296021E4FD7F8E1230777FC19E
:1028BE00123086BF0104E4FD80027D017FC012301C
:1028CE00777D807F8E1230777FC11230867BFFBF7F
:1028DE0001067A19790F80047A1979147D037F0322
:0628EE00122CC87F01223C
:102D02008B27AB078D2DE4FD7F321219E9C20075C6
:102D12005E9C122C0C7FC5123086EF2430F55ED2F9
:102D220000122C0C7FC5123086EF75F01CA4FF1226
:052D3200309E7F01222C
:0629DF00C2B5C2B7D2B779
:1029E500EFA2E092B6D2B5C2B5A2E192B6D2B5C217
:1029F500B5A2E292B6D2B5C2B5A2E392B6D2B5C23D
:102A0500B5A2E492B6D2B5C2B5A2E592B6D2B5C228
:102A1500B5A2E692B6D2B5C2B5A2E792B6D2B5C214
:022A2500B522D8
:0F307700AE051229DFAF061229E5C2B7D2B52286
:102C4800D2B6A2B692E0D2B5C2B5A2B692E1D2B5DA
:102C5800C2B5A2B692E2D2B5C2B5A2B692E3D2B5D7
:102C6800C2B5A2B692E4D2B5C2B5A2B692E5D2B5C3
:102C7800C2B5A2B692E6D2B5C2B5A2B692E7FF2215
:0C308600E4FE1229DF122C48C2B7D2B5BC
:01309200221B
:102D37007F811230868F0C7F831230868F0A7F85C2
:102D47001230868F097F871230868F087F8912306D
:102D5700868F0B7F8D1230868F0E7F8B1230868F7A
:052D67000D530D0F22C9
:102783007F81123086EF6480705AFD7F8E1230771E
:102793007D107F8C1230777D017F8A1230777F889E
:1027A3001230777F861230771D7F841230777F82D5
:1027B3001230777D507F801230777D057F90123005
:1027C30077E4FCECC3943C500DEC24C0FFE4FD1211
:1027D30030770C0C80ED7D097FC41230777D807FCC
:0427E3008E123077AB
:0127E70022CF
:101EA900D29600C2967912786BD8FED9FAD29600EA
:101EB9000000000000000000000000000000000019
:101EC9000000000000000000000000000000000009
:101ED90000000000000078DE309605D8FB021EEEF7
:101EE900D205021EF3C205021EFB7F067875D8FED5
:101EF900DFFAD29622D296121EA9200502803274E8
:101F0900CC121F447444121F44121FC7D296121ECA
:101F1900A974CC121F4474BE121F44121F67E5072F
:101F29008506F0A2F013A2F113A2F213A2F313F59E
:101F3900072005047FFF8002AF07227A08C3C296F3
:101F49007B24DBFE1392967BC0DBFED29600000059
:101F5900000000000000000000DAE3D296227C02B3
:101F690079077A08C3D2960000000000000000003B
:101F79000000000000000000000000000000000058
:011F89000057
:101F8A00C2960000000000000000000000000000EF
:101F9A000000000000000000000000000000000037
:101FAA00000000000000000000D2967B36DBFEA293
:101FBA00967B8ADBFE13DAABF719DCA5227F067E55
:061FCA00FFDEFEDFFA223B
:102B830075683CB2907F587E021230931568E568F1
:102B9300D3940050EE756864B2907FE07E011230EA
:102BA300931568E568D3940050EE756864B2907F1E
:102BB300B47E001230931568E568D3940050EED2CA
:012BC3009081
:012BC40022EE
:102BC500756932B2907F587E021230931569E569B6
:102BD500D3940050EE756964B2907F2C7E0112305B
:102BE500931569E569D3940050EE756932B2907F0B
:102BF500587E021230931569E569D3940050EED2E0
:012C0500903E
:012C060022AB
:10271700752B96B2907F907E01123093152BE52B87
:10272700D3940050EE7FF47E01122F9A752B96B248
:10273700907F907E01123093152BE52BD394005098
:10274700EE7FF47E01122F9A752B96B2907F907EC2
:1027570001123093152BE52BD3940050EE7FF47EB6
:1027670001122F9A752BFAB2907FC87E0012309310
:0B277700152BE52BD3940050EED29000
:012782002234
:10300400752764B2907F2C7E011230931527E52733
:07301400D3940050EED290AE
:01301B002292
:102F17007566097567C4B2907FB47E00123093E579
:102F270067156770021566D3E5679400E566940038
:042F370050E4D29000
:012F3B002273
:10301C00E4F52753070775BC4000EF42BC0043BCE6
:08302C00807F017E00022F9A53
:102FD300E4FF43BC0800000000EF7007E5BC541099
:082FE300FF80F653BCE7AFBD0F
:012FEB0022C3
:102C880025642D253032642D253032640053756E4D
:102C9800204D6F6E20547565205765642054687503
:102CA80020467269205361740020202000202020D3
:102CB800200025346400000000000000000000002F
:0C0F30008E2A8F2B8C2C8D2D8A2E8B2F5F
:100F3C00E4F530F531F532F533753411F535F53618
:100F4C0078377C00FD7BFF7A2C79BEFE7F0A120C71
:100F5C005E852A41852B42852C43852D44E54464CE
:100F6C000245437035AE41AF42FC7D04120CD1ED0D
:100F7C004C700EAE41AF42FC7D64120CD1ED4C7046
:100F8C000FAE41AF427C017D90120CD1ED4C70053F
:100F9C0075361D802D75361C8028E5446404454348
:100FAC006018E544640645436010E5446409454314
:100FBC006008E544640B4543700575361E80037567
:100FCC00361FAE41EE3395E0FDFCE54224FFFFEE0B
:100FDC0034FFFEED34FFFDEC34FFFCE47B04FAF946
:100FEC00F8122B3FC004C005C006C007AE41EE335B
:100FFC0095E0FDFCE54224FFFFEE34FFFEED34FFEF
:10100C00FDEC34FFFCE47B6D7A01F9F8120D07D08E
:10101C0003D002D001D000EF2BFFEE3AFEED39FDEC
:10102C00EC38FCC004C005C006C007AE41EE3395D9
:10103C00E0FDFCE54224FFFFEE34FFFEED34FFFD46
:10104C00EC34FFFCE47B64FAF9F8122B3FA804A9FA
:10105C0005AA06AB07D007D006D005D004C3EF9B7A
:10106C00FFEE9AFEED99FDEC98FCC004C005C0069D
:10107C00C007AE41EE3395E0FDFCE54224FFFFEEE8
:10108C0034FFFEED34FFFDEC34FFFCE47B907A0181
:10109C00F9F8122B3FD003D002D001D000EF2BF582
:1010AC0048EE3AF547ED39F546EC38F54575300024
:1010BC00753101C3E5319544E5436480F8E530644E
:1010CC0080984003021158E531640245307037AE08
:1010DC0041AF42FC7D04120CD1ED4C700EAE41AF11
:1010EC0042FC7D64120CD1ED4C700FAE41AF427CD2
:1010FC00017D90120CD1ED4C7006E548241D80301A
:10110C00E548241C802AE531640445306018E5313B
:10111C00640645306010E531640945306008E531FE
:10112C00640B45307006E548241E8004E548241FF6
:10113C00F548E43547F547E43546F546E43545F5DD
:10114C00450531E531700205300210BFE548240138
:10115C00FFE43547FEE43546FDE43545FCE47B070A
:10116C00FAF9F8122B3FAC00AD01AE02AF038F4C75
:10117C008E4B8D4A8C497550FF75512C7552888554
:10118C004153854254854355854456852E57852FAA
:10119C00587B007A00793712130F7B007A0079376D
:1011AC00E4F5517D2A1222BB7550FF7B07E4FD7FCD
:1011BC000812236F7BFF7A2C799575510A7D0B12DF
:1011CC0022BB7BFF7A2C79B1755111E4FD1222BB45
:1011DC0074082535F535E4F530F531AE30AF31EE28
:1011EC003395E0FDFCAB4CAA4BA94AA849D3120D90
:1011FC0056401E7BFF7A2C79B5755113AD351222F2
:10120C00BB740F2535F5350531E53170CE053080D1
:10121C00CA753200753301D3E53395367480F865A1
:10122C00329840030212B27E007F0A7D007B007A66
:10123C00007937120D7E7550FF75512C7552BA8599
:10124C0032538533547B007A00793712130F7B00AD
:10125C007A007937853451AD351222BB740F2535A0
:10126C00F535AE32EE3395E0FDFCE533254CFFEE63
:10127C00354BFEED354AFDEC3549FCE47B07FAF9BC
:10128C00F8122B3FAC00AD01AE02AF03EC4D4E4F4C
:10129C00700974082534F5347535080533E5337059
:0612AC00020532021223CC
:0112B2002219
:1024A500021D3CE493A3F8E493A34003F68001F2F4
:1024B50008DFF48029E493A3F85407240CC8C33338
:1024C500C4540F4420C8834004F456800146F6DF07
:1024D500E4800B0102040810204080900774E47E1C
:1024E500019360BCA3FF543F30E509541FFEE493FC
:1024F500A360010ECF54C025E060A840B8E493A3C3
:10250500FAE493A3F8E493A3C8C582C8CAC583CAED
:10251500F0A3C8C582C8CAC583CADFE9DEE780BEA5
:010B8D000067
:100B8E00E709F608DFFA8046E709F208DFFA803E49
:100B9E0088828C83E709F0A3DFFA8032E309F60836
:100BAE00DFFA8078E309F208DFFA807088828C839E
:100BBE00E309F0A3DFFA806489828A83E0A3F60852
:100BCE00DFFA805889828A83E0A3F208DFFA804C2C
:100BDE0080D280FA80C680D4806980F28033801003
:100BEE0080A680EA809A80A880DA80E280CA80336C
:100BFE0089828A83ECFAE493A3C8C582C8CCC583E4
:100C0E00CCF0A3C8C582C8CCC583CCDFE9DEE780B3
:100C1E000D89828A83E493A3F608DFF9ECFAA9F032
:100C2E00EDFB2289828A83ECFAE0A3C8C582C8CC88
:100C3E00C583CCF0A3C8C582C8CCC583CCDFEADEA1
:100C4E00E880DB89828A83E493A3F208DFF980CC03
:100C5E0088F0EF60010E4E60C388F0ED2402B404FC
:100C6E000050B9F582EB2402B4040050AF232345A3
:060C7E008223900BDE73DF
:100C8400C2D530F707B2D563F0FF05F030E70CB2F8
:100C9400D5F4048463F0FF05F080018430D502F4B8
:020CA400042228
:100CA600BB010689828A83E0225002E722BBFE024C
:090CB600E32289828A83E493227F
:100CBF00BB010689828A83F0225002F722BBFE0114
:020CCF00F3220E
:100CD100C2D5EC30E709B2D5E4C39DFDE49CFCEE3E
:100CE10030E715B2D5E4C39FFFE49EFE120DD7C3D2
:100CF100E49DFDE49CFC8003120DD730D507C3E4CD
:060D01009FFFE49EFE22AC
:100D0700E88FF0A4CC8BF0A42CFCE98EF0A42CFC8B
:100D17008AF0EDA42CFCEA8EF0A4CDA8F08BF0A409
:100D27002DCC3825F0FDE98FF0A42CCD35F0FCEB68
:100D37008EF0A4FEA9F0EB8FF0A4CFC5F02ECD392D
:0F0D4700FEE43CFCEAA42DCE35F0FDE43CFC229A
:102B3F00C2D5E830E70FB2D5E4C39BFBE49AFAE4C1
:102B4F0099F9E498F8EC30E717B2D5122B75120EFD
:102B5F0068E4C39BFBE49AFAE499F9E498F88003DC
:102B6F00120E6830D50DE4C39FFFE49EFEE49DFD79
:042B7F00E49CFC22B4
:100D5600EB9FF5F0EA9E42F0E99D42F0EC6480C814
:060D660064809845F022B4
:0C0D6C00A42582F582E5F03583F5832292
:060D78008A838982E47306
:1012B300E55C2450F8E6055C22784D30070278504F
:1012C300E475F001120EFA020CA62000EB7F2ED279
:1012D300008018EF540F2490D43440D4FF30040B13
:1012E300EF24BFB41A0050032461FFE55D600215CB
:1012F3005D0560E5607002055F30070D784DE475AC
:10130300F001120EFAEF020CBF022ECA7403D207C9
:101313008003E4C207F55C8B4D8A4E894FE4F55D8B
:10132300F55FF560E55D60077F201212EE80F575CD
:101333005EFFC201C200C202C203C205C206C208E6
:101343001212BCFF700D3007057F001212FFAF6051
:10135300AE5F22B4255FC2D5C2041212BCFF24D0F3
:10136300B40A00501A75F00A785D30D50508B6FF47
:101373000106C6A426F620D5047002D20380D92420
:10138300CFB41A00EF5004C2E5D2040214FFD20115
:1013930080C6D20080C0D20280BCD2D580BAD2052A
:1013A30080B47F201212EE2002077401B55D004065
:1013B300F11212B3FF1212EE021327D208D20680E3
:1013C300951212B3FB1212B3FA1212B3F94A4B700D
:1013D3000679D07A157BFF20022EE55D602A7E0018
:1013E3008E82758300120DAA60060EEE655E70F0A4
:1013F300C2D5EBC0E0EAC0E0E9C0E0EE121546D08A
:10140300E0F9D0E0FAD0E0FB120CA6FF60AAEBC033
:10141300E0EAC0E0E9C0E01212EED0E02401F9D026
:10142300E03400FAD0E0FBE55E0460DCD55ED980F1
:10143300877BFF7A157942D202809C7910800279EA
:1014430008C206C2088008D2D5790A8004790AC284
:10145300D5E55E047002F55EE4FAFDFEFF1212B3F9
:10146300FC7B082001131212B3FD7B1030000A121B
:1014730012B3FE1212B3FF7B20EC3382D592D55008
:1014830013C3E43000069FFFE49EFEE42001039DA6
:10149300FDE49CFCE4CBF8C201EC700CCFCECDCCC8
:1014A300E824F8F870F38017C3EF33FFEE33FEED53
:1014B30033FDEC33FCEB33FB994002FB0FD8E9EB34
:1014C300300105F8D0E0C448B201C0E00AEC4D4E4B
:1014D3004F78207B0070C2EAB55E0040BCC0E012CA
:1014E3001548D0F0D0E0200104C4C0E0C4B201C06C
:1014F300F01212D7D0F0D5F0EB021327120F0A1314
:10150300C453143E5813954C13914214424F144A3A
:0F15130044144A4913AA4314505514344614344F
:101522004514344715F05013992D139D2E13C02BDB
:1015320013A12313BE2015D92A135948000013B84A
:101542003F3F3F00790AA2D5200314300509B910A4
:10155200020404B9080104A2D520060250010420A5
:1015620002689202B55D005034C0E07F203003195A
:101572007F30A20272067205500F12159FC202C27C
:1015820006C205C2087F30800F300503E9C0E012B1
:1015920012EE300503D0E0F9D0E0B55DCC3005178E
:1015A2007F30B9100C1212EE7F583004077F78801A
:1015B20003B908031212EE3002057F2D0212EE7FEC
:1015C200202008F87F2B2006F322920280CF286E7B
:1015D200756C6C2900D2011212B33001F8C2017885
:1015E2005D30D50108F60213592D504349581212A5
:1015F200B32403B405004001E49015EB931212DF0B
:0D160200743A1212DFD203755D0402143E2B
:100D7E00EF4E6012EF60010EEDBB010B89828A838C
:100D8E00F0A3DFFCDEFA2289F05007F709DFFCA999
:0C0D9E00F022BBFEFCF309DFFCA9F022F0
:100DAA00BB010CE58229F582E5833AF583E02250FE
:100DBA0006E92582F8E622BBFE06E92582F8E22248
:0D0DCA00E58229F582E5833AF583E4932262
:100DD700BC000BBE0029EF8DF084FFADF022E4CC00
:100DE700F875F008EF2FFFEE33FEEC33FCEE9DECC9
:100DF700984005FCEE9DFE0FD5F0E9E4CEFD22ED0F
:100E0700F8F5F0EE8420D21CFEADF075F008EF2F58
:100E1700FFED33FD4007985006D5F0F222C398FD49
:050E27000FD5F0EA22E6
:100E2C0075F008758200EF2FFFEE33FECD33CDCC7D
:100E3C0033CCC58233C5829BED9AEC99E582984000
:100E4C000CF582EE9BFEED9AFDEC99FC0FD5F0D6DD
:100E5C00E4CEFBE4CDFAE4CCF9A88222B800C1B907
:100E6C000059BA002DEC8BF084CFCECDFCE5F0CB45
:100E7C00F97818EF2FFFEE33FEED33FDEC33FCEB7E
:100E8C0033FB10D703994004EB99FB0FD8E5E4F939
:100E9C00FA227818EF2FFFEE33FEED33FDEC33FC26
:100EAC00C933C910D7059BE99A4007EC9BFCE99A1A
:100EBC00F90FD8E0E4C9FAE4CCFB2275F010EF2F5F
:100ECC00FFEE33FEED33FDCC33CCC833C810D7075F
:100EDC009BEC9AE899400AED9BFDEC9AFCE899F89A
:0E0EEC000FD5F0DAE4CDFBE4CCFAE4C8F9222D
:100EFA00FAE6FB0808E6F925F0F618E6CA3AF622F9
:100F0A00D083D082F8E4937012740193700DA3A376
:100F1A0093F8740193F5828883E47374029368608A
:060F2A00EFA3A3A380DF8A
:102ECA00EFB40A07740D122ED5740A309811A89916
:102EDA00B8130CC2983098FDA899C298B811F63068
:072EEA0099FDC299F5992240
:00000001FF
