:0300000002249C3B
:0C249C00787FE4F6D8FD7581690224E326
:10000300000000000000005F00000007000700146C
:100013007F147F14242A7F2A12231308646236492B
:100023005522500005030000001C2241000041221C
:100033001C0014083E081408083E0808005030004D
:100043000008080808080060600000201008040287
:100053003E5149453E00427F40004261514946219D
:1000630041454B311814127F1027454545393C4A09
:100073004949300171090503364949493606494959
:10008300291E0036360000005636000008142241AF
:100093000014141414140041221408020151090617
:1000A300324979413E7E1111117E7F494949363EDD
:1000B300414141227F4141221C7F494949417F09F6
:1000C3000909013E4149497A7F0808087F00417FB9
:1000D30041002040413F017F081422417F404040BE
:1000E300407F020C027F7F0408107F3E4141413E66
:1000F3007F090909063E4151215E7F0919294646B8
:100103004949493101017F01013F4040403F1F20E0
:1001130040201F3F4038403F6314081463070870B2
:1001230008076151494543007F414100020408101B
:10013300200041417F00040201020440404040404E
:10014300000102040020545454787F484444383852
:1001530044444420384444487F3854545418087E57
:100163000901020C5252523E7F0804047800447D78
:1001730040002040443D007F1028440000417F4060
:10018300007C041804787C08040478384444443818
:100193007C14141408081414187C7C0804040848FC
:1001A30054545420043F4440203C4040207C1C20B5
:1001B30040201C3C4030403C44281028440C505004
:1001C300503C4464544C44000836410000007F0016
:1001D30000004136080010080810087846414678A8
:1001E300000000000000000000000000000000010B
:1001F30001010001000000000000000000000101F7
:1002030000000000000000000101000000010101E6
:1002130001010001000100010101010100010001D0
:1002230000010101010101000100000100000100C2
:1002330000000100000001000001010101010001B3
:1002430001010001000001010101010000000000A3
:100253000000000000000000000101010001000097
:100263000001000000000001000000010001010185
:100273000000000000000100010000000100000078
:100283000100010000000001000000010101000065
:100293000001000000000000010000000100000058
:1002A3000000000000010000000001000000000148
:1002B300000000000000010000000000000000003A
:1002C3000000000001010000010000010100000026
:1002D300010101010101000000010101010101010E
:1002E3000000000101010101010000000001010003
:1002F30001010101000100010101010001010001EF
:1003030000010100010001010101010101010100DE
:1003130000000001000001010101010101010001D0
:1003230001000100010100010101010101010101BD
:1003330000010001010001010101000000000100B2
:10034300000101010101000001010101010100019E
:10035300000101010101010101010001010001008E
:100363000101010101010001000100000000000082
:100373000000000000000000000100010001000077
:100383000000000000000100000001000100010066
:100393000000010001000100000100010000010054
:1003A3000100010000000100010001000101010141
:1003B3000101000000000100010001010100000033
:1003C3000001010100010001000100010100010120
:1003D300010101010100010000010101010101010D
:1003E3000101010100010001000100010000010100
:1003F30001000100000001010000000101010101F1
:1004030001010000000100010101000101010101DE
:1004130001000100010100010001010101010101CD
:1004230000010000010001000000010101000100C2
:1004330001000101000101010101010101000001AD
:10044300000001010101010100000001010101019E
:100453000101000000010000000100000000000194
:10046300010101010001010101010000010000017E
:100473000100010101010101010000000001000070
:10048300000001010101010100010100000101015E
:10049300010101010101010001010100010101014B
:1004A3000100010101000100000001000101010040
:1004B3000101010101010001000000010000000031
:1004C300010101000100000101000101010101011D
:1004D3000101010100010000000100010100010010
:1004E3000001010001000101000001000100000002
:1004F30000010101010101000000000101010101EE
:1005030000000000010101010101010101010000DE
:1005130000000001010101010001010101010000CE
:1005230001010001010101010101000101000001BC
:1005330000000101000101010100000000000101B0
:10054300010101000000010000010101000100019F
:10055300010100000101010101010100000001008E
:100563000000000001010000000000010000000085
:10057300000101010000000101010101010000006F
:100583000000000100000001000000000001000065
:100593000000000000010000000001000000000155
:1005A3000101000000000000000000000000000046
:1005B300010001010001010001000001010101012D
:1005C3000101010001000001000001010000000120
:1005D3000100000100000100010000010000010111
:1005E30000000100000101010101010000010100FF
:1005F30000010001010001010001000001000000F1
:1006030001010101010001000000010100000100DE
:1006130001000101010101000101010101000100CB
:1006230000000000010101010001010100000000C0
:1006330000000000000000000001000000000001B5
:10064300010001010101010101010000010100009C
:10065300010000010100000001010101010100008E
:10066300000001000101010100010101000001017D
:10067300010100010101010001000000000101016D
:100683000100000101000001000001000001010060
:100693000001010101000100010000000100000050
:1006A3000001000000010001000001010101000040
:1006B300010101000100000001010100000001002F
:1006C3000001010001000101000001000001000020
:1006D300000101010101000100000100010101010C
:1006E30000000000010001010101000101010000FF
:1006F30000000001000101010000010101010000EF
:1007030001010000010101010001000100000101DC
:1007130001010001000100000101000101000100CD
:1007230001010101010000010001010001010101BA
:1007330000010001000000010000000101010101AE
:1007430000010000000001010100000000000000A2
:10075300000000010001000000010101010000018F
:100763000000000001010000000100010001010080
:010773000184
:100774000164000165006400000000000000000046
:100784000000000000000000000000000000000065
:100794000000000000000000000000000000000055
:1007A4000000000000000000000000000000000045
:1007B4000000000000000000000000000000000035
:10303700E4FEEF3392B2D2B3C2B3EF25E0FF0EBE88
:0230470008F08F
:013049002264
:052C0A00D200E4F55EBC
:102C0F00200005755FF88003755FFAE55E54F0F5F7
:102C1F0060E55EC454F0F561AF5F1230377F017E1F
:102C2F0000122F9DAF601230377F017E00122F9D53
:0C2C3F00AF611230377F017E00022F9D34
:0F305C00C200755E01122C0F7F147E00022F9DA3
:1027EB00E4F562F563C200755E36122C0FE4F562F8
:1027FB00C200E562C41354076007E56224E0FF8062
:10280B0002AF62EF2480F55E122C0FC200E562C4AA
:10281B0013540760047F8880027F808F5E122C0F19
:10282B00E4F563122C0A0563E563C3941040F405C9
:10283B0062E562C3944040B8C200755E30022C0F53
:102D6F008B328A338934AB32AA33A934120CA66062
:102D7F0016D2000534E5347002053314F9120CA68F
:102D8F00F55E122C0F80DFAB32AA33A934E4020CAC
:012D9F00BF74
:102EF4007FC87E00122F9DC200755E30122C0FC257
:102F040000755E0C122C0FC200755E01122C0F7F2F
:062F1400C87E00022F9DA3
:082CCB008D2A8B2B8A2C892D28
:102CD300E4FEEF24FE600E14600F146010240370F2
:102CE3000E7E80800A7E9080067E8880027E98E534
:102CF3002A2EC200F55E122C0FAB2BAA2CA92D0293
:022D03002D6F32
:10304A0075D902E4F5E9F5F975DB42F5EBF5FBD242
:02305A00DE2274
:0530A1008FEB8FFB2204
:102FEF00C200755E34122C0FC20085655E122C0F65
:082FFF00C20085645E022C0F84
:022947008B2AD9
:102949008F648D651226A8E4F52B122FEFE4F52C80
:10295900E52A75F002A4FFC3E52C9FE5F06480F831
:10296900748098500CD200755EFF122C0F052C80D4
:10297900DF0565052BE52BC3941040CEC200755EBB
:0C29890036122C0FC200755E30022C0FBD
:1026A800C200755E34122C0FE4F52DC200E52D240E
:1026B80080F55E122C0FC200755E80122C0FE4F5B7
:1026C8002E122C0A122C0A052EE52EC3941040F166
:1026D800052DE52DC3942040D2E4F52DC200E52D4B
:1026E8002480F55E122C0FC200755E88122C0FE450
:1026F800F52E122C0A122C0A052EE52EC394104032
:10270800F1052DE52DC3942040D2C200755E360236
:022718002C0F84
:062528008F0F8D108B11D6
:10252E00E4F5141226A8E50FD3940140077514089C
:10253E00150F150FC200755E34122C0FE4F512C282
:10254E0000E50FC454F024802512F55E122C0FC244
:10255E0000E51424802510F55E122C0FE4F513E52A
:10256E0013C395115022D200755EFF122C0F7F01FE
:10257E007E00122F3FD200755EFF122C0F7F017E60
:10258E0000122F3F051380D70512E512C394104099
:10259E00AEC200755E36122C0FC200755E30022C74
:0125AE000F1D
:102F7F00C200755E08122C0F7FFA7E00122F9DC2C1
:0E2F8F0000755E0C122C0F7FFA7E00022F9D43
:102FBA00E4F51FC200755E1C122C0F7FFA7E001208
:0B2FCA002F9D051FE51FC3940840E881
:012FD50022D9
:102DA000C200755E20122C0F7F017E00122F9DC283
:102DB00000755E24122C0F7F017E00122F9DC20031
:0D2DC000755E26122C0F7F017E00022F9DF4
:0F306B00C200755E20122C0F7F017E00022F9D88
:10299500E4F52BE52BC394205012C200E52B4480AF
:1029A500F55E122C0FC200755E808012C200E52B09
:1029B50024E04480F55E122C0FC200755E88122C4F
:1029C5000FE4F52A122C0A122C0A052AE52AC394CB
:0C29D5000840F1052BE52BC3944040B7EF
:0129E10022D3
:041BC9008D588B594F
:101BCD00E4F55AF55BFEFDEFD3947F40047F7F80F3
:101BDD0008EFC394005002E4FFE558D3943F40054D
:101BED0075583F800AE558C394005003E4F558EF4B
:101BFD00C4540FF55AE558C39420400C74E0255891
:101C0D00F5587408255AF55AEF540FF55BC200E5E7
:101C1D00582480F55E122C0FC200E55A2480F55E23
:101C2D00122C0F75F040E55AA42400F582E5F0342E
:101C3D0000F58375F002E558120D6CE0FE75F0406D
:101C4D00E55AA42401F582E5F03400F58375F00220
:101C5D00E558120D6CE0FDE55BC39408505DE55948
:101C6D00B40112AF5B7480A807088002C313D8FCBF
:101C7D004EF55C8027E5597013AF5B7480A807089B
:101C8D008002C313D8FCF45EF55C8010AF5B7480EA
:101C9D00A807088002C313D8FC6EF55C75F040E50B
:101CAD005AA42400F582E5F03400F58375F002E5C1
:101CBD0058120D6CE55CF08D5D8064E559B401152D
:101CCD00E55B24F8FF7480A807088002C313D8FCD5
:101CDD004DF55D802DE5597016E55B24F8FF748098
:101CED00A807088002C313D8FCF45DF55D8013E5E9
:101CFD005B24F8FF7480A807088002C313D8FC6D1D
:101D0D00F55D75F040E55AA42401F582E5F0340047
:101D1D00F58375F002E558120D6CE55DF08E5CD221
:0F1D2D0000855C5E122C0FD200855D5E022C0FCC
:0622BE008B4D8A4E894F92
:1022C4008D52855153755401E4F555F556AB4DAA1D
:0B22D4004EA94F120CA67003022371EC
:1022DF00054FE54F7002054E14F9120CA6F557C3C2
:1022EF0094204007E557D3947E400375577F74E0E1
:1022FF002557F557E554701BF555E5532555FDE466
:10230F00FBAF52121BC90555E555C3940540EB05AC
:10231F00528003E4F554E4F556E556C3940350A2F6
:10232F00E4F55575F00FE557A424E3F582E5F03495
:10233F0001F58375F005E556120D6CE5822555F50F
:10234F0082E43583F583E493FBE5532555FDAF52C6
:10235F00121BC90555E555C3940540C705520556CF
:02236F0080B735
:012371002249
:062372008F4D8D4E8B4FD4
:10237800854E51E4F552E54DC39420400C74E02598
:102388004DF54D74082551F551C200E54D2480F5F1
:102398005E122C0FC200E5512480F55E122C0FE46A
:1023A800F552C3E54F954EFFE552D39F5050D200EA
:1023B80085505E122C0FD20085505E122C0FE5510D
:1023C8002552FFE433FEEF7806C333CE33CED8F977
:1023D800FF2400F58274003EF58375F002E54D1286
:1023E8000D6CE550F074012FF58274003EF583758D
:0E23F800F002E54D120D6CE550F0055280A488
:0124060022B3
:1025AF00000F0F0100FF2E7D0104020500FF2A2AF4
:1025BF000201030600FF2A700302040A00FF2AB675
:1025CF000403010B00FF2AFC0505050501FF2F5F22
:1025DF000607070802FF2DCD0706060902FF2DF992
:1025EF000808080806FF284B0909090907FF262FC5
:1025FF000A0A0A0A03FF24070B0C0C0D04FF2E25F1
:10260F000C0B0B0E04FF2E510D0D0D0D0BFF28A102
:10261F000E0E0E0E0CFF2D050F00000100FF28F708
:030B7E00011B0058
:101D3C00E4F522F523F524F525F52675B2FFF5B16A
:101D4C007592F7F5917580FF75A0FFC282C287C2AC
:101D5C00A5C2A07F0312301F12304A122786122E02
:101D6C00F47FB41230A130850930800630A70320EF
:101D7C00A2777F0A7E00122F3F123007208519753B
:101D8C002401E51B75F008A424B0F582E43425F594
:101D9C0083E493F51B3085FD208019752501E51B27
:101DAC0075F008A424B1F582E43425F583E493F5A9
:101DBC001B3080FD20A719752601E51B75F008A4C2
:101DCC0024B2F582E43425F583E493F51B30A7FDAA
:101DDC0020A216E51B75F008A424B3F582E4342583
:101DEC00F583E493F51B30A2FDE51B7032E51B7502
:101DFC00F008A424B4F582E43425F583E493FB7451
:101E0C000193FA7402938B1C8A1DF51EF5828A834A
:101E1C00E4FBFDFF120D7C8F22851B23021D72E556
:101E2C0023651B603C12305CE51B75F008A424B4E0
:101E3C00F582E43425F583E493FB740193FA740280
:101E4C00938B1C8A1DF51EF5828A83E4FBFDFF1221
:101E5C000D7C8F22851B23E4F524F525F526021D28
:101E6C0072E5227003021D72E51B75F008A424B400
:101E7C00F582E43425F583E493FB740193FA740240
:101E8C00938B1C8A1DF51EF5828A83AB26AD25AF7C
:101E9C0024120D7C8F22E4F524F525F526021D7203
:102F3F00E4FDFCC3ED9FEC9E5015E4FBFA0BBB00C8
:0F2F4F00010AEB64144A70F50DBD00010C80E41B
:012F5E002250
:102F9D00EF1F70011E144E6013E4FCFDC3ED945839
:0C2FAD00EC940250EB0DBD00010C80F014
:012FB90022F5
:0B309600EF1FAC0670011E4C70F6220C
:101804003230002D0020003A0041646A7573740080
:10181400202020202020202020004D696E00486FC9
:101824007572005765656B00446179004D6F6E7485
:10183400680059656172004D6F6465002020204284
:10184400656570004261636B6C696768740043612D
:101854006C6C627261746500416C77617973207499
:1018640075726E206F666600416C61726D206F6EDA
:10187400636500416C77617973207475726E206FB3
:101884006E004D6F6E20746F20467269206F6E007B
:101894004D6F6E20746F2053617274206F6E00530D
:1018A40061727420616E642053756E206F6E004FF8
:1018B4006E6C792053756E206F6E005365742074BE
:1018C400696D650053657420616C61726D005365C8
:1018D4007420686F757200536574206261636B6C69
:1018E4006967687400416C61726D20737769746311
:1018F4006800416C61726D2064657461696C004DAF
:1019040061696E2073776974636800204F4E20000C
:10191400204F464600416C61726D2000202020203B
:1019240020202020002020202020204F4646202058
:10193400202020202000202030363A30302D2D3237
:10194400303A3030202000202030363A30302D2DEF
:1019540032333A3030202000202030373A30302DD6
:101964002D32303A3030202000202030373A3030C9
:101974002D2D32333A3030202000202030383A30B8
:10198400302D2D32303A3030202000202030383AAB
:1019940030302D2D32333A303020200020203039A1
:1019A4003A30302D2D32303A303020200020203093
:1019B400393A30302D2D32333A3030202000202077
:1019C40030303A30302D2D32333A3030202000413F
:1019D40075746F204374726C004D616E75616C2078
:0519E4004374726C0069
:0C0B81000115000116010117C701180042
:10160F00122D3AC200755E88122C0F7BFF7A187963
:10161F0004122D6FD200E50EC4540F2430F55E1264
:10162F002C0FD200E50E540F2430F55E122C0F7BD9
:10163F00FF7A187907122D6FD200E50BC4540F24CF
:10164F0030F55E122C0FD200E50B540F2430F55EEF
:10165F00122C0F7BFF7A187907122D6FD200E50835
:10166F00C4540F2430F55E122C0FD200E508540F2E
:10167F002430F55E122C0F7BFF7A187909122D6F2B
:10168F00D200E509C4540F2430F55E122C0FD2009E
:10169F00E509540F2430F55E122C0F7F811230892B
:1016AF00EF5401FF7BFFBF01067A18790B80047A94
:1016BF00187909122D6FD200E50AC4540F2430F5A2
:1016CF005E122C0FD200E50A540F2430F55E122C57
:1016DF000FC200755E98122C0FD200755ED0122CBF
:1016EF000FD200755EC7122C0FD200755EC6122C7A
:1016FF000FD200755EDA122C0FE50DB40710D20071
:10170F00755EC8122C0FD200755ED5122C0FE50D29
:10171F00B40610D200755EC1122C0FD200755EF99F
:10172F00122C0FE50DB40510D200755ECE122C0FE2
:10173F00D200755EE5122C0FE50DB40410D20075C2
:10174F005ECB122C0FD200755EC4122C0FE50DB4B8
:10175F000310D200755EC8122C0FD200755EFD12F9
:10176F002C0FE50DB40210D200755EB6122C0FD2FD
:10177F0000755EFE122C0FE50DB40110D200755EE0
:10178F00D2122C0FD200755EBB122C0F121F018FBD
:10179F002B152B152BE52BC3943C5058C200755EAF
:1017AF009C122C0FD200755ECE122C0FD200755EDC
:1017BF00C2122C0FD200755EB6122C0FD200755EBE
:1017CF00C8122C0FD200E52B75F00A842430F55E79
:1017DF00122C0FD200E52B75F00A84E5F02430F5BA
:1017EF005E122C0FD200755EA1122C0FD200755E07
:0417FF00E6122C0FB3
:0118030022C2
:0619E9008F2A8D2B8B2CD0
:1019EF00C200755E83122C0F7BFF7A18790D122DB2
:1019FF006FC200755E92122C0F7BFF7A187914124A
:101A0F002D6FC200755E92122C0FE52AB405127B62
:101A1F00FF7A18791E122D6F752E8275303BE4F503
:101A2F0031E52AB404127BFF7A187922122D6F75D3
:101A3F002E84753017E4F531E52AB403127BFF7A53
:101A4F00187927122D6F752E8A753007753101E5BC
:101A5F002AB402127BFF7A18792C122D6F752E86FD
:101A6F0075301F753101E52AB401127BFF7A1879A1
:101A7F0030122D6F752E8875300C753101E52A7077
:101A8F00127BFF7A187936122D6F752E8C75306395
:101A9F00E4F531E52AB4C8197BFF7A18793B122D8A
:101AAF006FE52B75F006A424C2F52E753006E4F50C
:101ABF0031E52AB4C9197BFF7A187922122D6FE507
:101ACF002B75F006A424C4F52E753017E4F531E517
:101ADF002AB4CA197BFF7A18791E122D6FE52B7560
:101AEF00F006A424C6F52E75303BE4F531E52AB493
:101AFF0028127BFF7A187940122D6F752EC2753020
:101B0F0009E4F531E52AB432127BFF7A18794812CD
:101B1F002D6F752EC4753009E4F531E52AB4E61240
:101B2F007BFF7A187952122D6F752EFC753014E4E5
:101B3F00F531E52E04FF123089EFC4540F75F00A0A
:101B4F00A4FFC007E52E04FF123089EF540FFED01B
:101B5F00E02EF52FE52CB40102052FE52DB401027F
:101B6F00152FD3E5306480F8E52F64809840038506
:101B7F00312FC3E5316480F8E52F648098500385D9
:101B8F00302FE4FD7F8E12307AE52F75F00A120C9C
:101B9F0084C454F0FFE52F75F00A120C84AEF0EFF9
:101BAF002EFDAF2E12307AE52AB40507E4FD7F80B3
:0A1BBF0012307A7D807F8E02307AAA
:1020CE008F2AC200755E8B122C0FD200E52A2430A7
:1020DE00F55E122C0FC200755E8D122C0FE52A755F
:1020EE00F006A424C5FF123089EFC4540F2430F536
:1020FE005ED200122C0FE52A75F006A424C5FF123D
:10210E003089EF540F2430F55ED200122C0F7BFF76
:10211E007A18790B122D6FE52A75F006A424C7FFE5
:10212E00123089EFC4540F2430F55ED200122C0FFA
:10213E00E52A75F006A424C7FF123089EF540F2448
:10214E0030F55ED200122C0FC200755E98122C0F65
:10215E00E52A75F006A424C3FF123089EFB40700F8
:10216E005055902177F828287302218C0221940271
:10217E00219C0221A40221AC0221B40221BC7BFFCE
:10218E007A18795C802E7BFF7A18796C80267BFF1B
:10219E007A187977801E7BFF7A18798680167BFFF6
:1021AE007A187994800E7BFF7A1879A380067BFFCC
:0721BE007A1879B3122D6FAE
:0121C50022F7
:1021C600E4FD7F8E12307A752A01E52A75F006A4A1
:1021D60024C3FF123089EF70030222ABE52A75F0A3
:1021E60006A424C5FF123089C0077F85123089AE48
:1021F60007D007EF6E60030222ABE52A75F006A44E
:1022060024C7FF123089C0077F83123089AE07D0FA
:1022160007EF6E60030222AB7F81123089EFC39411
:102226000940030222AB7F83123089EF651A60757D
:10223600E52A75F006A424C3FF123089EF24FE6058
:102246002214602314602F14603B14604724057029
:102256004DD209E52A75F006A424C2FFE4FD12302A
:102266007A803BD20980377F8B123089EFC3940680
:10227600502CD20980287F8B123089EFC3940750E7
:102286001DD20980197F8B123089EFD39405400E39
:10229600D209800A7F8B123089BF0702D2097F8359
:1022A6001230898F1A052AE52AC3940750030221A2
:0822B600D07D807F8E02307A9A
:101FD3007F81123089EF60030220CD7F8312308925
:101FE300EF60030220CD7FC7123089EF6003022028
:101FF300CD7F851230898F2A7FC3123089EF14B4C5
:10200300090040030220CA90201875F003A4C58379
:1020130025F0C58373022033022049022059022090
:10202300690220790220890220990220A90220B99D
:10203300E52AC3940650030220CAE52AD39420401C
:10204300030220CA807EE52AC39406407AE52AD398
:1020530094235073806EE52AC39407406AE52AD31C
:1020630094205063805EE52AC39407405AE52AD33F
:1020730094235053804EE52AC39408404AE52AD35B
:1020830094205043803EE52AC39408403AE52AD37E
:1020930094235033802EE52AC39409402AE52AD39A
:1020A30094205023801EE52AC39409401AE52AD3BD
:1020B30094235013800EE52AC39400400AE52AD3E3
:0A20C3009423500312271A12160F7F
:0120CD0022F0
:102EA600122FD68F2A7FC1123089BF0119E52AD386
:102EB60094D040047F01800B7FC5123089EF75F0F6
:062EC6001CA4FF1230A164
:012ECC0022E3
:102E7D008F278D288B291221C6121FD37F811230E7
:102E8D0089EF6519601012305C7F811230898F19BE
:092E9D0012160F122EA67F00226E
:1028F7008F278D288B29122DA0122995E50EC454F8
:102907000F75F00AA424D0FFE5F03407FEE50E5456
:102917000F7C002FFFEC3EFEC006C007E508C4543D
:102927000F75F00AA4FFE508540F2FFBEC35F0FAFA
:10293700E50BFDD007D006120F3012306B7F002257
:102A2A008F278D288B297BFF7A1879BFE4FD7F01D8
:102A3A00122CCB7BFF7A1879C8E4FD7F02122CCBCB
:102A4A007BFF7A1879D2E4FD7F03122CCB7BFF7AC5
:102A5A001879DBE4FD7F04122CCB7B087D807F8014
:062A6A001229477F002243
:102A70008F278D288B297BFF7A1879BFE4FD7F0192
:102A8000122CCB7BFF7A1879C8E4FD7F02122CCB85
:102A90007BFF7A1879D2E4FD7F03122CCB7BFF7A7F
:102AA0001879DBE4FD7F04122CCB7B087D907F90AE
:062AB0001229477F0022FD
:102AB6008F278D288B297BFF7A1879BFE4FD7F014C
:102AC600122CCB7BFF7A1879C8E4FD7F02122CCB3F
:102AD6007BFF7A1879D2E4FD7F03122CCB7BFF7A39
:102AE6001879DBE4FD7F04122CCB7B087D807F8880
:062AF6001229477F0022B7
:102AFC008F278D288B297BFF7A1879BFE4FD7F0106
:102B0C00122CCB7BFF7A1879C8E4FD7F02122CCBF8
:102B1C007BFF7A1879D2E4FD7F03122CCB7BFF7AF2
:102B2C001879DBE4FD7F04122CCB7B087D907F9819
:062B3C001229477F002270
:102F5F00EB60040515800BAB078D2DE4FDAF15124B
:0F2F6F0019E912160FE515B40603E4F5157F01F5
:012F7E002230
:102DCD008F278D288B297BFF7A1879E9E4FD7F0108
:102DDD00122CCB7BFF7A1879F6E4FD7F02122CCBF7
:0C2DED007B087D807F801229477F002238
:102DF9008F278D288B297BFF7A1879E9E4FD7F01DC
:102E0900122CCB7BFF7A1879F6E4FD7F02122CCBCA
:0C2E19007B087D907F901229477F0022EB
:10284B008F278D288B297BFF7A1979037D017F02D6
:10285B00122CCBE5296021E4FD7F8E12307A7FC7E5
:10286B00123089BF0104E4FD80027D017FC6123066
:10287B007A7D807F8E12307A7FC71230897BFFBFC3
:10288B0001067A19790F80047A1979147D037F0375
:06289B00122CCB7F01228C
:06262F008F278D288B2986
:102635007BFF7A197919E4FD7F03122CCBE529601C
:1026450028751801AF17051785282DAB27AD16126C
:1026550019E9E517B4CB127517C7E4F5187BFF7AAE
:10266500197920FD7F02122CCBE518600E85282DE7
:10267500AB27AD16AF171219E98020E527600C05C9
:1026850016E516D394064003751601E528600C156A
:1026950016E516C394015003751606AF161220CE23
:0226A5007F01B3
:0126A7002210
:102407008B27AB078D2DE4FD7F281219E97FC312B7
:102417003089EFB40A00507A902426F828287302EE
:10242700244402244C02245402245C02246402241F
:102437006C02247402247C02248402248C7BFF7A9D
:1024470019792980467BFF7A19793A803E7BFF7A92
:1024570019794B80367BFF7A19795C802E7BFF7A5E
:1024670019796D80267BFF7A19797E801E7BFF7A2A
:1024770019798F80167BFF7A1979A0800E7BFF7AF6
:102487001979B180067BFF7A1979C2E4FD7F0412BE
:052497002CCB7F0122A7
:102E25008F278D288B297BFF7A1979D3E4FD7F01C4
:102E3500122CCB7BFF7A1979DDE4FD7F02122CCBB6
:0C2E45007B087D807F801229477F0022DF
:102E51008F278D288B297BFF7A1979D3E4FD7F0198
:102E6100122CCB7BFF7A1979DDE4FD7F02122CCB8A
:0C2E71007B087D907F901229477F002293
:1028A1008F278D288B297BFF7A1979D37D017F02B0
:1028B100122CCBE5296021E4FD7F8E12307A7FC195
:1028C100123089BF0104E4FD80027D017FC0123016
:1028D1007A7D807F8E12307A7FC11230897BFFBF73
:1028E10001067A19790F80047A1979147D037F031F
:0628F100122CCB7F012236
:102D05008B27AB078D2DE4FD7F321219E9C20075C3
:102D15005E9C122C0F7FC5123089EF2430F55ED2F0
:102D250000122C0F7FC5123089EF75F01CA4FF121D
:052D350030A17F012226
:0629E200C2B5C2B7D2B776
:1029E800EFA2E092B6D2B5C2B5A2E192B6D2B5C214
:1029F800B5A2E292B6D2B5C2B5A2E392B6D2B5C23A
:102A0800B5A2E492B6D2B5C2B5A2E592B6D2B5C225
:102A1800B5A2E692B6D2B5C2B5A2E792B6D2B5C211
:022A2800B522D5
:0F307A00AE051229E2AF061229E8C2B7D2B5227D
:102C4B00D2B6A2B692E0D2B5C2B5A2B692E1D2B5D7
:102C5B00C2B5A2B692E2D2B5C2B5A2B692E3D2B5D4
:102C6B00C2B5A2B692E4D2B5C2B5A2B692E5D2B5C0
:102C7B00C2B5A2B692E6D2B5C2B5A2B692E7FF2212
:0C308900E4FE1229E2122C4BC2B7D2B5B3
:013095002218
:102D3A007F811230898F0C7F831230898F0A7F85B9
:102D4A001230898F097F871230898F087F89123064
:102D5A00898F0B7F8D1230898F0E7F8B1230898F6E
:052D6A000D530D0F22C6
:102786007F81123089EF6480705AFD7F8E12307A15
:102796007D107F8C12307A7D017F8A12307A7F8895
:1027A60012307A7F8612307A1D7F8412307A7F82C9
:1027B60012307A7D507F8012307A7D057F901230FC
:1027C6007AE4FCECC3943C500DEC24C0FFE4FD120B
:1027D600307A0C0C80ED7D097FC412307A7D807FC3
:0427E6008E12307AA5
:0127EA0022CC
:101EAC00D29600C2967912786BD8FED9FAD29600E7
:101EBC000000000000000000000000000000000016
:101ECC000000000000000000000000000000000006
:101EDC0000000000000078DE309605D8FB021EF1F1
:101EEC00D205021EF6C205021EFE7F067875D8FECC
:101EFC00DFFAD29622D296121EAC200502803274E2
:101F0C00CC121F477444121F47121FCAD296121EBE
:101F1C00AC74CC121F4774BE121F47121F6AE50720
:101F2C008506F0A2F013A2F113A2F213A2F313F59B
:101F3C00072005047FFF8002AF07227A08C3C296F0
:101F4C007B24DBFE1392967BC0DBFED29600000056
:101F5C00000000000000000000DAE3D296227C02B0
:101F6C0079077A08C3D29600000000000000000038
:101F7C000000000000000000000000000000000055
:011F8C000054
:101F8D00C2960000000000000000000000000000EC
:101F9D000000000000000000000000000000000034
:101FAD00000000000000000000D2967B36DBFEA290
:101FBD00967B8ADBFE13DAABF719DCA5227F067E52
:061FCD00FFDEFEDFFA2238
:102B860075683CB2907F587E021230961568E568EB
:102B9600D3940050EE756864B2907FE07E011230E7
:102BA600961568E568D3940050EE756864B2907F18
:102BB600B47E001230961568E568D3940050EED2C4
:012BC600907E
:012BC70022EB
:102BC800756932B2907F587E021230961569E569B0
:102BD800D3940050EE756964B2907F2C7E01123058
:102BE800961569E569D3940050EE756932B2907F05
:102BF800587E021230961569E569D3940050EED2DA
:012C0800903B
:012C090022A8
:10271A00752B96B2907F907E01123096152BE52B81
:10272A00D3940050EE7FF47E01122F9D752B96B242
:10273A00907F907E01123096152BE52BD394005092
:10274A00EE7FF47E01122F9D752B96B2907F907EBC
:10275A0001123096152BE52BD3940050EE7FF47EB0
:10276A0001122F9D752BFAB2907FC87E0012309607
:0B277A00152BE52BD3940050EED290FD
:012785002231
:10300700752764B2907F2C7E011230961527E5272D
:07301700D3940050EED290AB
:01301E00228F
:102F1A007566097567C4B2907FB47E00123096E573
:102F2A0067156770021566D3E5679400E566940035
:042F3A0050E4D290FD
:012F3E002270
:10301F00E4F52753070775BC4000EF42BC0043BCE3
:08302F00807F017E00022F9D4D
:102FD600E4FF43BC0800000000EF7007E5BC541096
:082FE600FF80F653BCE7AFBD0C
:012FEE0022C0
:102C8B0025642D253032642D253032640053756E4A
:102C9B00204D6F6E20547565205765642054687500
:102CAB0020467269205361740020202000202020D0
:102CBB00200025346400000000000000000000002C
:0C0F30008E2A8F2B8C2C8D2D8A2E8B2F5F
:100F3C00E4F530F531F532F533753411F535F53618
:100F4C0078377C00FD7BFF7A2C79C1FE7F0A120C6E
:100F5C005E852A41852B42852C43852D44E54464CE
:100F6C000245437035AE41AF42FC7D04120CD1ED0D
:100F7C004C700EAE41AF42FC7D64120CD1ED4C7046
:100F8C000FAE41AF427C017D90120CD1ED4C70053F
:100F9C0075361D802D75361C8028E5446404454348
:100FAC006018E544640645436010E5446409454314
:100FBC006008E544640B4543700575361E80037567
:100FCC00361FAE41EE3395E0FDFCE54224FFFFEE0B
:100FDC0034FFFEED34FFFDEC34FFFCE47B04FAF946
:100FEC00F8122B42C004C005C006C007AE41EE3358
:100FFC0095E0FDFCE54224FFFFEE34FFFEED34FFEF
:10100C00FDEC34FFFCE47B6D7A01F9F8120D07D08E
:10101C0003D002D001D000EF2BFFEE3AFEED39FDEC
:10102C00EC38FCC004C005C006C007AE41EE3395D9
:10103C00E0FDFCE54224FFFFEE34FFFEED34FFFD46
:10104C00EC34FFFCE47B64FAF9F8122B42A804A9F7
:10105C0005AA06AB07D007D006D005D004C3EF9B7A
:10106C00FFEE9AFEED99FDEC98FCC004C005C0069D
:10107C00C007AE41EE3395E0FDFCE54224FFFFEEE8
:10108C0034FFFEED34FFFDEC34FFFCE47B907A0181
:10109C00F9F8122B42D003D002D001D000EF2BF57F
:1010AC0048EE3AF547ED39F546EC38F54575300024
:1010BC00753101C3E5319544E5436480F8E530644E
:1010CC0080984003021158E531640245307037AE08
:1010DC0041AF42FC7D04120CD1ED4C700EAE41AF11
:1010EC0042FC7D64120CD1ED4C700FAE41AF427CD2
:1010FC00017D90120CD1ED4C7006E548241D80301A
:10110C00E548241C802AE531640445306018E5313B
:10111C00640645306010E531640945306008E531FE
:10112C00640B45307006E548241E8004E548241FF6
:10113C00F548E43547F547E43546F546E43545F5DD
:10114C00450531E531700205300210BFE548240138
:10115C00FFE43547FEE43546FDE43545FCE47B070A
:10116C00FAF9F8122B42AC00AD01AE02AF038F4C72
:10117C008E4B8D4A8C497550FF75512C75528B8551
:10118C004153854254854355854456852E57852FAA
:10119C00587B007A00793712130F7B007A0079376D
:1011AC00E4F5517D2A1222BE7550FF7B07E4FD7FCA
:1011BC00081223727BFF7A2C799875510A7D0B12D9
:1011CC0022BE7BFF7A2C79B4755111E4FD1222BE3C
:1011DC0074082535F535E4F530F531AE30AF31EE28
:1011EC003395E0FDFCAB4CAA4BA94AA849D3120D90
:1011FC0056401E7BFF7A2C79B8755113AD351222EF
:10120C00BE740F2535F5350531E53170CE053080CE
:10121C00CA753200753301D3E53395367480F865A1
:10122C00329840030212B27E007F0A7D007B007A66
:10123C00007937120D7E7550FF75512C7552BD8596
:10124C0032538533547B007A00793712130F7B00AD
:10125C007A007937853451AD351222BE740F25359D
:10126C00F535AE32EE3395E0FDFCE533254CFFEE63
:10127C00354BFEED354AFDEC3549FCE47B07FAF9BC
:10128C00F8122B42AC00AD01AE02AF03EC4D4E4F49
:10129C00700974082534F5347535080533E5337059
:0612AC00020532021223CC
:0112B2002219
:1024A800021D3CE493A3F8E493A34003F68001F2F1
:1024B80008DFF48029E493A3F85407240CC8C33335
:1024C800C4540F4420C8834004F456800146F6DF04
:1024D800E4800B0102040810204080900774E47E19
:1024E800019360BCA3FF543F30E509541FFEE493F9
:1024F800A360010ECF54C025E060A840B8E493A3C0
:10250800FAE493A3F8E493A3C8C582C8CAC583CAEA
:10251800F0A3C8C582C8CAC583CADFE9DEE780BEA2
:010B8D000067
:100B8E00E709F608DFFA8046E709F208DFFA803E49
:100B9E0088828C83E709F0A3DFFA8032E309F60836
:100BAE00DFFA8078E309F208DFFA807088828C839E
:100BBE00E309F0A3DFFA806489828A83E0A3F60852
:100BCE00DFFA805889828A83E0A3F208DFFA804C2C
:100BDE0080D280FA80C680D4806980F28033801003
:100BEE0080A680EA809A80A880DA80E280CA80336C
:100BFE0089828A83ECFAE493A3C8C582C8CCC583E4
:100C0E00CCF0A3C8C582C8CCC583CCDFE9DEE780B3
:100C1E000D89828A83E493A3F608DFF9ECFAA9F032
:100C2E00EDFB2289828A83ECFAE0A3C8C582C8CC88
:100C3E00C583CCF0A3C8C582C8CCC583CCDFEADEA1
:100C4E00E880DB89828A83E493A3F208DFF980CC03
:100C5E0088F0EF60010E4E60C388F0ED2402B404FC
:100C6E000050B9F582EB2402B4040050AF232345A3
:060C7E008223900BDE73DF
:100C8400C2D530F707B2D563F0FF05F030E70CB2F8
:100C9400D5F4048463F0FF05F080018430D502F4B8
:020CA400042228
:100CA600BB010689828A83E0225002E722BBFE024C
:090CB600E32289828A83E493227F
:100CBF00BB010689828A83F0225002F722BBFE0114
:020CCF00F3220E
:100CD100C2D5EC30E709B2D5E4C39DFDE49CFCEE3E
:100CE10030E715B2D5E4C39FFFE49EFE120DD7C3D2
:100CF100E49DFDE49CFC8003120DD730D507C3E4CD
:060D01009FFFE49EFE22AC
:100D0700E88FF0A4CC8BF0A42CFCE98EF0A42CFC8B
:100D17008AF0EDA42CFCEA8EF0A4CDA8F08BF0A409
:100D27002DCC3825F0FDE98FF0A42CCD35F0FCEB68
:100D37008EF0A4FEA9F0EB8FF0A4CFC5F02ECD392D
:0F0D4700FEE43CFCEAA42DCE35F0FDE43CFC229A
:102B4200C2D5E830E70FB2D5E4C39BFBE49AFAE4BE
:102B520099F9E498F8EC30E717B2D5122B78120EF7
:102B620068E4C39BFBE49AFAE499F9E498F88003D9
:102B7200120E6830D50DE4C39FFFE49EFEE49DFD76
:042B8200E49CFC22B1
:100D5600EB9FF5F0EA9E42F0E99D42F0EC6480C814
:060D660064809845F022B4
:0C0D6C00A42582F582E5F03583F5832292
:060D78008A838982E47306
:1012B300E55C2450F8E6055C22784D30070278504F
:1012C300E475F001120EFA020CA62000EB7F2ED279
:1012D300008018EF540F2490D43440D4FF30040B13
:1012E300EF24BFB41A0050032461FFE55D600215CB
:1012F3005D0560E5607002055F30070D784DE475AC
:10130300F001120EFAEF020CBF022ECD7403D207C6
:101313008003E4C207F55C8B4D8A4E894FE4F55D8B
:10132300F55FF560E55D60077F201212EE80F575CD
:101333005EFFC201C200C202C203C205C206C208E6
:101343001212BCFF700D3007057F001212FFAF6051
:10135300AE5F22B4255FC2D5C2041212BCFF24D0F3
:10136300B40A00501A75F00A785D30D50508B6FF47
:101373000106C6A426F620D5047002D20380D92420
:10138300CFB41A00EF5004C2E5D2040214FFD20115
:1013930080C6D20080C0D20280BCD2D580BAD2052A
:1013A30080B47F201212EE2002077401B55D004065
:1013B300F11212B3FF1212EE021327D208D20680E3
:1013C300951212B3FB1212B3FA1212B3F94A4B700D
:1013D3000679D07A157BFF20022EE55D602A7E0018
:1013E3008E82758300120DAA60060EEE655E70F0A4
:1013F300C2D5EBC0E0EAC0E0E9C0E0EE121546D08A
:10140300E0F9D0E0FAD0E0FB120CA6FF60AAEBC033
:10141300E0EAC0E0E9C0E01212EED0E02401F9D026
:10142300E03400FAD0E0FBE55E0460DCD55ED980F1
:10143300877BFF7A157942D202809C7910800279EA
:1014430008C206C2088008D2D5790A8004790AC284
:10145300D5E55E047002F55EE4FAFDFEFF1212B3F9
:10146300FC7B082001131212B3FD7B1030000A121B
:1014730012B3FE1212B3FF7B20EC3382D592D55008
:1014830013C3E43000069FFFE49EFEE42001039DA6
:10149300FDE49CFCE4CBF8C201EC700CCFCECDCCC8
:1014A300E824F8F870F38017C3EF33FFEE33FEED53
:1014B30033FDEC33FCEB33FB994002FB0FD8E9EB34
:1014C300300105F8D0E0C448B201C0E00AEC4D4E4B
:1014D3004F78207B0070C2EAB55E0040BCC0E012CA
:1014E3001548D0F0D0E0200104C4C0E0C4B201C06C
:1014F300F01212D7D0F0D5F0EB021327120F0A1314
:10150300C453143E5813954C13914214424F144A3A
:0F15130044144A4913AA4314505514344614344F
:101522004514344715F05013992D139D2E13C02BDB
:1015320013A12313BE2015D92A135948000013B84A
:101542003F3F3F00790AA2D5200314300509B910A4
:10155200020404B9080104A2D520060250010420A5
:1015620002689202B55D005034C0E07F203003195A
:101572007F30A20272067205500F12159FC202C27C
:1015820006C205C2087F30800F300503E9C0E012B1
:1015920012EE300503D0E0F9D0E0B55DCC3005178E
:1015A2007F30B9100C1212EE7F583004077F78801A
:1015B20003B908031212EE3002057F2D0212EE7FEC
:1015C200202008F87F2B2006F322920280CF286E7B
:1015D200756C6C2900D2011212B33001F8C2017885
:1015E2005D30D50108F60213592D504349581212A5
:1015F200B32403B405004001E49015EB931212DF0B
:0D160200743A1212DFD203755D0402143E2B
:100D7E00EF4E6012EF60010EEDBB010B89828A838C
:100D8E00F0A3DFFCDEFA2289F05007F709DFFCA999
:0C0D9E00F022BBFEFCF309DFFCA9F022F0
:100DAA00BB010CE58229F582E5833AF583E02250FE
:100DBA0006E92582F8E622BBFE06E92582F8E22248
:0D0DCA00E58229F582E5833AF583E4932262
:100DD700BC000BBE0029EF8DF084FFADF022E4CC00
:100DE700F875F008EF2FFFEE33FEEC33FCEE9DECC9
:100DF700984005FCEE9DFE0FD5F0E9E4CEFD22ED0F
:100E0700F8F5F0EE8420D21CFEADF075F008EF2F58
:100E1700FFED33FD4007985006D5F0F222C398FD49
:050E27000FD5F0EA22E6
:100E2C0075F008758200EF2FFFEE33FECD33CDCC7D
:100E3C0033CCC58233C5829BED9AEC99E582984000
:100E4C000CF582EE9BFEED9AFDEC99FC0FD5F0D6DD
:100E5C00E4CEFBE4CDFAE4CCF9A88222B800C1B907
:100E6C000059BA002DEC8BF084CFCECDFCE5F0CB45
:100E7C00F97818EF2FFFEE33FEED33FDEC33FCEB7E
:100E8C0033FB10D703994004EB99FB0FD8E5E4F939
:100E9C00FA227818EF2FFFEE33FEED33FDEC33FC26
:100EAC00C933C910D7059BE99A4007EC9BFCE99A1A
:100EBC00F90FD8E0E4C9FAE4CCFB2275F010EF2F5F
:100ECC00FFEE33FEED33FDCC33CCC833C810D7075F
:100EDC009BEC9AE899400AED9BFDEC9AFCE899F89A
:0E0EEC000FD5F0DAE4CDFBE4CCFAE4C8F9222D
:100EFA00FAE6FB0808E6F925F0F618E6CA3AF622F9
:100F0A00D083D082F8E4937012740193700DA3A376
:100F1A0093F8740193F5828883E47374029368608A
:060F2A00EFA3A3A380DF8A
:102ECD00EFB40A07740D122ED8740A309811A89910
:102EDD00B8130CC2983098FDA899C298B811F63065
:072EED0099FDC299F599223D
:00000001FF
