:03000000022DA22C
:0C2DA200787FE4F6D8FD758199022DE9D8
:10000300000000000000005F00000007000700146C
:100013007F147F14242A7F2A12231308646236492B
:100023005522500005030000001C2241000041221C
:100033001C0014083E081408083E0808005030004D
:100043000008080808080060600000201008040287
:100053003E5149453E00427F40004261514946219D
:1000630041454B311814127F1027454545393C4A09
:100073004949300171090503364949493606494959
:10008300291E0036360000005636000008142241AF
:100093000014141414140041221408020151090617
:1000A300324979413E7E1111117E7F494949363EDD
:1000B300414141227F4141221C7F494949417F09F6
:1000C3000909013E4149497A7F0808087F00417FB9
:1000D30041002040413F017F081422417F404040BE
:1000E300407F020C027F7F0408107F3E4141413E66
:1000F3007F090909063E4151215E7F0919294646B8
:100103004949493101017F01013F4040403F1F20E0
:1001130040201F3F4038403F6314081463070870B2
:1001230008076151494543007F414100020408101B
:10013300200041417F00040201020440404040404E
:10014300000102040020545454787F484444383852
:1001530044444420384444487F3854545418087E57
:100163000901020C5252523E7F0804047800447D78
:1001730040002040443D007F1028440000417F4060
:10018300007C041804787C08040478384444443818
:100193007C14141408081414187C7C0804040848FC
:1001A30054545420043F4440203C4040207C1C20B5
:1001B30040201C3C4030403C44281028440C505004
:1001C300503C4464544C44000836410000007F0016
:1001D30000004136080010080810087846414678A8
:1001E300000000000000000000000000000000010B
:1001F30001010001000000000000000000000101F7
:1002030000000000000000000101000000010101E6
:1002130001010001000100010101010100010001D0
:1002230000010101010101000100000100000100C2
:1002330000000100000001000001010101010001B3
:1002430001010001000001010101010000000000A3
:100253000000000000000000000101010001000097
:100263000001000000000001000000010001010185
:100273000000000000000100010000000100000078
:100283000100010000000001000000010101000065
:100293000001000000000000010000000100000058
:1002A3000000000000010000000001000000000148
:1002B300000000000000010000000000000000003A
:1002C3000000000001010000010000010100000026
:1002D300010101010101000000010101010101010E
:1002E3000000000101010101010000000001010003
:1002F30001010101000100010101010001010001EF
:1003030000010100010001010101010101010100DE
:1003130000000001000001010101010101010001D0
:1003230001000100010100010101010101010101BD
:1003330000010001010001010101000000000100B2
:10034300000101010101000001010101010100019E
:10035300000101010101010101010001010001008E
:100363000101010101010001000100000000000082
:100373000000000000000000000100010001000077
:100383000000000000000100000001000100010066
:100393000000010001000100000100010000010054
:1003A3000100010000000100010001000101010141
:1003B3000101000000000100010001010100000033
:1003C3000001010100010001000100010100010120
:1003D300010101010100010000010101010101010D
:1003E3000101010100010001000100010000010100
:1003F30001000100000001010000000101010101F1
:1004030001010000000100010101000101010101DE
:1004130001000100010100010001010101010101CD
:1004230000010000010001000000010101000100C2
:1004330001000101000101010101010101000001AD
:10044300000001010101010100000001010101019E
:100453000101000000010000000100000000000194
:10046300010101010001010101010000010000017E
:100473000100010101010101010000000001000070
:10048300000001010101010100010100000101015E
:10049300010101010101010001010100010101014B
:1004A3000100010101000100000001000101010040
:1004B3000101010101010001000000010000000031
:1004C300010101000100000101000101010101011D
:1004D3000101010100010000000100010100010010
:1004E3000001010001000101000001000100000002
:1004F30000010101010101000000000101010101EE
:1005030000000000010101010101010101010000DE
:1005130000000001010101010001010101010000CE
:1005230001010001010101010101000101000001BC
:1005330000000101000101010100000000000101B0
:10054300010101000000010000010101000100019F
:10055300010100000101010101010100000001008E
:100563000000000001010000000000010000000085
:10057300000101010000000101010101010000006F
:100583000000000100000001000000000001000065
:100593000000000000010000000001000000000155
:1005A3000101000000000000000000000000000046
:1005B300010001010001010001000001010101012D
:1005C3000101010001000001000001010000000120
:1005D3000100000100000100010000010000010111
:1005E30000000100000101010101010000010100FF
:1005F30000010001010001010001000001000000F1
:1006030001010101010001000000010100000100DE
:1006130001000101010101000101010101000100CB
:1006230000000000010101010001010100000000C0
:1006330000000000000000000001000000000001B5
:10064300010001010101010101010000010100009C
:10065300010000010100000001010101010100008E
:10066300000001000101010100010101000001017D
:10067300010100010101010001000000000101016D
:100683000100000101000001000001000001010060
:100693000001010101000100010000000100000050
:1006A3000001000000010001000001010101000040
:1006B300010101000100000001010100000001002F
:1006C3000001010001000101000001000001000020
:1006D300000101010101000100000100010101010C
:1006E30000000000010001010101000101010000FF
:1006F30000000001000101010000010101010000EF
:1007030001010000010101010001000100000101DC
:1007130001010001000100000101000101000100CD
:1007230001010101010000010001010001010101BA
:1007330000010001000000010000000101010101AE
:1007430000010000000001010100000000000000A2
:10075300000000010001000000010101010000018F
:100763000000000001010000000100010001010080
:010773000184
:10077400016B00016C006400000000000000000038
:100784000000000000000000000000000000000065
:100794000000000000000000000000000000000055
:1007A4000000000000000000000000000000000045
:1007B4000000000000000000000000000000000035
:103A7800E4FEEF3392B2D2B3C2B3EF25E0FF0EBE3D
:023A880008F044
:013A8A002219
:05353800D200E4F55E85
:10353D00E4F55FF5602000047FF880027FFAE55E18
:10354D0054F0F55FE55EC454F0F560123A787F01F2
:10355D007E0012396DAF5F123A787F017E0012390D
:0D356D006DAF60123A787F017E0002396D6B
:0F3A9D00C200755E0112353D7F147E0002396D47
:10370A008B328A338934AB32AA33A934120CDA6089
:10371A0016D2000534E5347002053314F9120CDAB6
:10372A00F55E12353D80DFAB32AA33A934E4020CD0
:01373A00F39B
:1038E4007FC87E0012396DC200755E3012353DC24C
:1038F40000755E0C12353DC200755E0112353D7FC8
:06390400C87E0002396DCF
:0835FA008D2A8B2B8A2C892DF0
:10360200E4FEEF24FE600E14600F146010240370B9
:103612000E7E80800A7E9080067E8880027E98E5FB
:103622002A2EC200F55E12353DAB2BAA2CA92D0223
:02363200370A55
:103A8B0075D902E4F5E9F5F975DB42F5EBF5FBD2F7
:023A9B00DE2229
:053B02008FEB8FFB2298
:103A0B00C200755E3412353DC200856C5E12353DC9
:083A1B00C200856B5E02353D1F
:0231CD008B2A4B
:1031CF00E4F52BF52C8F6B8D6C122F2FE4F52B1252
:1031DF003A0BE4F52CE52A75F002A4FFC3E52C9F0A
:1031EF00E5F06480F8748098500CD200755EFF1281
:1031FF00353D052C80DF056C052BE52BC394104066
:10320F00CEC200755E3612353DC200755E30023596
:01321F003D71
:102F2F00C200755E3412353DE4F52DC200E52D2447
:102F3F0080F55E12353DC200755E8012353DE4F5B9
:102F4F002E123538123538052EE52EC3941040F168
:102F5F00052DE52DC3942040D2E4F52DC200E52DBB
:102F6F002480F55E12353DC200755E8812353DE452
:102F7F00F52E123538123538052EE52EC394104034
:102F8F00F1052DE52DC3942040D2C200755E3602A7
:022F9F00353DBE
:10373B00C200755E2012353D7F017E0012396DC2CD
:10374B0000755E2412353D7F017E0012396DC2007B
:0D375B00755E2612353D7F017E0002396D3E
:0F3AAC00C200755E2012353D7F017E0002396D2C
:102C7400E4F52AF52BF52BE52BC394205012C20062
:102C8400E52B4480F55E12353DC200755E808012EE
:102C9400C200E52B24E04480F55E12353DC2007588
:102CA4005E8812353DE4F52A123538123538052A86
:102CB400E52AC3940840F1052BE52BC3944040B7A3
:102CC400E4F52BE4F52A75F040E52AA42400F58206
:102CD400E5F03400F58375F002E52B120DB2E4F053
:102CE40075F040E52AA42401F582E5F03400F5836B
:102CF40075F002E52B120DB2E4F0052AE52AB410B2
:082D0400C5052BE52BB420BB33
:012D0C0022A4
:0D214600A8730808E6FDE5732408F8E6FB21
:042153008D588B59BF
:10215700E4F55AF55BFEFDF55CF55DEFD3947F4042
:10216700047F7F8008EFC394005002E4FFE558D353
:10217700943F400575583F800AE558C394005003C3
:10218700E4F558EFC4540FF55AE558C39420400CB2
:1021970074E02558F5587408255AF55AEF540FF589
:1021A7005BC200E5582480F55E12353DC200E55A52
:1021B7002480F55E12353D75F040E55AA42400F5FC
:1021C70082E5F03400F58375F002E558120DB2E0B0
:1021D700FE75F040E55AA42401F582E5F03400F5D8
:1021E7008375F002E558120DB2E0FDE55BC3940874
:1021F700505DE559B40112AF5B7480A807088002EF
:10220700C313D8FC4EF55C8027E5597013AF5B7498
:1022170080A807088002C313D8FCF45EF55C801021
:10222700AF5B7480A807088002C313D8FC6EF55C07
:1022370075F040E55AA42400F582E5F03400F583F3
:1022470075F002E558120DB2E55CF08D5D8064E52E
:1022570059B40115E55B24F8FF7480A807088002CC
:10226700C313D8FC4DF55D802DE5597016E55B2449
:10227700F8FF7480A807088002C313D8FCF45DF543
:102287005D8013E55B24F8FF7480A807088002C30C
:1022970013D8FC6DF55D75F040E55AA42401F5826D
:1022A700E5F03400F58375F002E558120DB2E55DEF
:1022B700F08E5CD200855C5E12353DD200855D5E96
:0322C70002353DA0
:062B0C008B4D8A4E894F3B
:102B12008D52855153755401E4F555F556AB4DAAC6
:0B2B22004EA94F120CDA7003022BBF0B
:102B2D00054FE54F7002054E14F9120CDAF557C337
:102B3D0094204007E557D3947E400375577F74E08A
:102B4D002557F557E554701BF555E5532555FDE40F
:102B5D00FBAF521221530555E555C3940540EB05C6
:102B6D00528003E4F554E4F556E556C3940350A2A0
:102B7D00E4F55575F00FE557A424E3F582E5F0343F
:102B8D0001F58375F005E556120DB2E5822555F573
:102B9D0082E43583F583E493FBE5532555FDAF5270
:102BAD001221530555E555C3940540C705520556E9
:022BBD0080B7DF
:012BBF0022F3
:043220008D4E8B4FF5
:10322400854E51E4F552EFC39420400A74E02FFF19
:1032340074082551F551C200EF2480F55E12353D26
:10324400C200E5512480F55E12353DE4F552C3E534
:103254004F954EFFE552D39F5014D20085505E1215
:0E326400353DD20085505E12353D055280E0AA
:013272002239
:103075001573A873A6031573A873A6051573A8730E
:04308500A607157312
:10308900A873E4F6A8730808E6A873F6E5732403A1
:10309900F8E62401FDE433FCA873E6FFC39DEC6464
:1030A90080F87480985014A87308E6FDE573240429
:0B30B900F8E6FB122153A8730680D13B
:0730C400E5732405F57322FA
:102984001573A873A6031573A873A6051573A87306
:08299400A607E57324FBF573AF
:10299C00F8E4F6E5732408F8E6A87308F6A87308BB
:1029AC0008E4F6E5732406F8E6A8730808F6E57360
:1029BC002407F9A8730808E6D397507BE57324091C
:0629CC00F8E6FDF4605482
:1029D200A873E65407FF74807E00A807088006CE1D
:1029E200A2E713CE13D8F8FFEF5DFFE5732403F8D7
:1029F200760008A607E5732403F909E71947A873C7
:102A0200087003F680027601E5732408F8E6701177
:102A1200A87308E670047F0180027F00A87308A6ED
:042A220007A8730688
:102A2600E5732405F8E6FFA8730808E6FDA8730811
:0D2A3600E6FB122153A8730808060229BA16
:072A4300E573240AF573227C
:10243D001573A873A6031573A873A6051573A87352
:08244D00A60715731573157342
:10245500A873E4F6A87308F6A8730808F6E57324CC
:1024650005F8E6FFE5732403F8E6FED39F4016A8BA
:1024750073A606E5732403F8A607A873E6FFE573BC
:102485002405F8A607E5732406F8E6FFE57324049A
:10249500F8E6FED39F4016A873A606E5732404F854
:1024A500A607A873E6FFE5732406F8A607E57324D7
:1024B50003F8E6A87308F6E5732405F9A87308E69A
:1024C500FFD397501BE5732404F812214AA873081B
:1024D500E6FFE5732406F812214AA873080680D79B
:1024E500E5732404F8E604A8730808F6E5732406E2
:1024F500F9A8730808E6FDC397501BE5732403F894
:10250500E6FF12214CE5732405F8E6FF122146A8E3
:102515007308080680D6E5732407F8E66043E5737B
:102525002404F8E604A8730808F6E5732406F9A858
:10253500730808E6C3975029E5732403F8E604A851
:102545007308F6E5732405F9A87308E6FFC39750E9
:1025550009122146A873080680E9A87308080680B1
:01256500C9AC
:07256600E5732409F573225F
:102E2E0000100F0100FF386C0104020500FF335241
:102E3E000201030600FF33980302040A00FF33DE8B
:102E4E000403010B00FF34240505050501FF394D70
:102E5E000607070802FF37680706060902FF3794C0
:102E6E000808080806FF30CB0909090907FF2EB626
:102E7E000A0A0A0A03FF2D0D0B0C0C0D04FF37C0B6
:102E8E000C0B0B0E04FF37EC0D0D0D0D0BFF31214E
:102E9E000E0E0E0E0CFF36A00F00100100FF327347
:082EAE00100F000100FF39C004
:080B7E0001670003680000009C
:1022CA00E4F522F523F524F525F52675B2FFF5B1D7
:1022DA007592F7F5917580FF75A0FFC282C287C219
:1022EA00A5C2A07F03123A23123A8B123010123879
:1022FA00E47FB4123B0212389530850930800630EB
:10230A00A70320A2777F0A7E0012392D12398A206C
:10231A008519752401E56775F008A4242FF582E470
:10232A00342EF583E493F5673085FD2080197525F1
:10233A0001E56775F008A42430F582E4342EF583AC
:10234A00E493F5673080FD20A719752601E56775C6
:10235A00F008A42431F582E4342EF583E493F5677A
:10236A0030A7FD20A216E56775F008A42432F5828D
:10237A00E4342EF583E493F56730A2FDE567703205
:10238A00E56775F008A42433F582E4342EF583E476
:10239A0093FB740193FA7402938B688A69F56AF560
:1023AA00828A83E4FBFDFF120DC28F228567230216
:1023BA002303E5236567603C123A9DE56775F008DB
:1023CA00A42433F582E4342EF583E493FB74019359
:1023DA00FA7402938B688A69F56AF5828A83E4FB48
:1023EA00FDFF120DC28F22856723E4F524F525F53A
:1023FA0026022303E5227003022303E56775F0082A
:10240A00A42433F582E4342EF583E493FB74019318
:10241A00FA7402938B688A69F56AF5828A83AB2615
:10242A00AD25AF24120DC28F22E4F524F525F52639
:03243A0002230377
:10392D00E4FDFCC3ED9FEC9E5015E4FAFB0BBB00D0
:0F393D00010AEB64144A70F50DBD00010C80E423
:01394C002258
:10396D00EF1F70011E144E6013E4FCFDC3ED94585F
:0C397D00EC940250EB0DBD00010C80F03A
:01398900221B
:0B3AD700EF1FAC0670011E4C70F622C1
:101F61003230002D0020003A0041646A757374001C
:101F7100202020202020202020004D696E00486F65
:101F81007572005765656B00446179004D6F6E7421
:101F9100680059656172004D6F6465002020204220
:101FA100656570004261636B6C69676874004361C9
:101FB1006C6C627261746500416C77617973207435
:101FC10075726E206F666600416C61726D206F6E76
:101FD100636500416C77617973207475726E206F4F
:101FE1006E004D6F6E20746F20467269206F6E0017
:101FF1004D6F6E20746F2053617274206F6E0053A9
:1020010061727420616E642053756E206F6E004F93
:102011006E6C792053756E206F6E00536574207459
:10202100696D650053657420616C61726D00536563
:102031007420686F757200536574206261636B6C04
:102041006967687400416C61726D207377697463AC
:102051006800416C61726D2064657461696C004D4A
:1020610061696E2073776974636800204F4E2000A8
:10207100204F464600416C61726D200020202020D7
:1020810020202020002020202020204F46462020F4
:10209100202020202000202030363A30302D2D32D3
:1020A100303A3030202000202030363A30302D2D8B
:1020B10032333A3030202000202030373A30302D72
:1020C1002D32303A3030202000202030373A303065
:1020D1002D2D32333A3030202000202030383A3054
:1020E100302D2D32303A3030202000202030383A47
:1020F10030302D2D32333A3030202000202030393D
:102101003A30302D2D32303A30302020002020302E
:10211100393A30302D2D32333A3030202000202012
:1021210030303A30302D2D32333A303020200041DA
:1021310075746F204374726C004D616E75616C2013
:052141004374726C0004
:100B8600016500016600C10901610001620101639E
:040B9600C70164002F
:101B7F00E4F52BFF1236D5C200755E8812353D7B1A
:101B8F00FF7A1F796112370AD200E518C4540F2467
:101B9F0030F55E12353DD200E518540F2430F55E56
:101BAF0012353D7BFF7A1F796412370AD200E51593
:101BBF00C4540F2430F55E12353DD200E515540F95
:101BCF002430F55E12353D7BFF7A1F796412370A98
:101BDF00D200E512C4540F2430F55E12353DD20009
:101BEF00E512540F2430F55E12353D7BFF7A1F79D5
:101BFF006612370AD200E513C4540F2430F55E1273
:101C0F00353DD200E513540F2430F55E12353D7F7C
:101C1F0081123ACAEF5401FF7BFFBF01067A1F7989
:101C2F006880047A1F796612370AD200E514C4540B
:101C3F000F2430F55E12353DD200E514540F2430D9
:101C4F00F55E12353DC200755E9812353DD20075B6
:101C5F005ED012353DD200755EC712353DD200758C
:101C6F005EC612353DD200755EDA12353DE517B40A
:101C7F000710D200755EC812353DD200755ED512C1
:101C8F00353DE517B40610D200755EC112353DD251
:101C9F0000755EF912353DE517B40510D200755E7B
:101CAF00CE12353DD200755EE512353DE517B40411
:101CBF0010D200755ECB12353DD200755EC4123561
:101CCF003DE517B40310D200755EC812353DD20042
:101CDF00755EFD12353DE517B40210D200755EB684
:101CEF0012353DD200755EFE12353DE517B4011079
:101CFF00D200755ED212353DD200755EBB12353DF6
:101D0F001225C28F2B152B152BE52BC3943C505846
:101D1F00C200755E9C12353DD200755ECE12353D08
:101D2F00D200755EC212353DD200755EB612353DDA
:101D3F00D200755EC812353DD200E52B75F00A84CE
:101D4F002430F55E12353DD200E52B75F00A84E59F
:101D5F00F02430F55E12353DD200755EA112353D8F
:081D6F00D200755EE612353D5D
:011D77002249
:061D78008F2A8D2B8B2C3D
:101D7E00E4F52EF52FF530F531C200755E83123580
:101D8E003D7BFF7A1F796A12370AC200755E921286
:101D9E00353D7BFF7A1F797112370AC200755E924C
:101DAE0012353DE52AB405127BFF7A1F797B123777
:101DBE000A752E8275303BE4F531E52AB404127BA8
:101DCE00FF7A1F797F12370A752E84753017E4F566
:101DDE0031E52AB403127BFF7A1F798412370A7514
:101DEE002E8A753007753101E52AB402127BFF7A0F
:101DFE001F798912370A752E8675301F753101E5E8
:101E0E002AB401127BFF7A1F798D12370A752E883C
:101E1E0075300C753101E52A70127BFF7A1F7993AC
:101E2E0012370A752E8C753063E4F531E52AB4C885
:101E3E00197BFF7A1F799812370AE52B75F006A4E5
:101E4E0024C2F52E753006E4F531E52AB4C9197BA6
:101E5E00FF7A1F797F12370AE52B75F006A424C48A
:101E6E00F52E753017E4F531E52AB4CA197BFF7AE1
:101E7E001F797B12370AE52B75F006A424C6F52EC2
:101E8E0075303BE4F531E52AB428127BFF7A1F79D1
:101E9E009D12370A752EC2753009E4F531E52AB464
:101EAE0032127BFF7A1F79A512370A752EC4753050
:101EBE0009E4F531E52AB4E6127BFF7A1F79AF12F9
:101ECE00370A752EFC753014E4F531E52E04FF1239
:101EDE003ACAEFC4540F75F00AA4FFC007E52E04EA
:101EEE00FF123ACAEF540FFED0E02EF52FE52CB4B8
:101EFE000102052FE52DB40102152FD3E5306480C4
:101F0E00F8E52F648098400385312FC3E531648056
:101F1E00F8E52F648098500385302FE4FD7F8E12F4
:101F2E003ABBE52F75F00A120CB8C454F0FFE52F3A
:101F3E0075F00A120CB8AEF0EF2EFDAF2E123ABBB2
:101F4E00E52AB40507E4FD7F80123ABB7D807F8EC3
:031F5E00023ABB89
:10288C008F2AC200755E8B12353DD200E52A2430AA
:10289C00F55E12353DC200755E8D12353DE52A752B
:1028AC00F006A424C5FF123ACAEFC4540F2430F525
:1028BC005ED20012353DE52A75F006A424C5FF1240
:1028CC003ACAEF540F2430F55ED20012353D7BFF2F
:1028DC007A1F796812370AE52A75F006A424C7FF17
:1028EC00123ACAEFC4540F2430F55ED20012353DB3
:1028FC00E52A75F006A424C7FF123ACAEF540F2438
:10290C0030F55ED20012353DC200755E9812353D31
:10291C00E52A75F006A424C3FF123ACAEFB40700E7
:10292C005055902935F828287302294A0229520259
:10293C00295A02296202296A02297202297A7BFF2A
:10294C007A1F79B9802E7BFF7A1F79C980267BFF8D
:10295C007A1F79D4801E7BFF7A1F79E380167BFF68
:10296C007A1F79F1800E7BFF7A20790080067BFF3D
:08297C007A20791012370A22BB
:10279200E4F52AFD7F8E123ABB752A01E52A75F00F
:1027A20006A424C3FF123ACAEF7003022879E52A6D
:1027B20075F006A424C5FF123ACAC0077F85123AF3
:1027C200CAAE07D007EF6E6003022879E52A75F0DA
:1027D20006A424C7FF123ACAC0077F83123ACAAEC0
:1027E20007D007EF6E60030228797F81123ACAEFA1
:1027F200C3940940030228797F83123ACAEF6566BF
:102802006075E52A75F006A424C3FF123ACAEF24C4
:10281200FE602214602314602F14603B146047246E
:1028220005704DD209E52A75F006A424C2FFE4FD25
:10283200123ABB803BD20980377F8B123ACAEFC370
:102842009406502CD20980287F8B123ACAEFC39487
:1028520007501DD20980197F8B123ACAEFD3940513
:10286200400ED209800A7F8B123ACABF0702D209F0
:102872007F83123ACA8F66052AE52AC3940750035A
:0A28820002279E7D807F8E023ABB84
:10269400E4F52A7F81123ACAEF60030227917F830F
:1026A400123ACAEF60030227917FC7123ACAEF6059
:1026B400030227917F85123ACA8F2A7FC3123ACA2E
:1026C400EF14B40900400302278E9026DC75F00352
:1026D400A4C58325F0C583730226F702270D0227BC
:1026E4001D02272D02273D02274D02275D02276D7B
:1026F40002277DE52AC39406500302278EE52AD3D8
:102704009420400302278E807EE52AC39406407AF3
:10271400E52AD394235073806EE52AC39407406A54
:10272400E52AD394205063805EE52AC39407405A77
:10273400E52AD394235053804EE52AC39408404A93
:10274400E52AD394205043803EE52AC39408403AB6
:10275400E52AD394235033802EE52AC39409402AD2
:10276400E52AD394205023801EE52AC39409401AF5
:10277400E52AD394235013800EE52AC39400400A1B
:0D278400E52AD394235003122FA1121B7FCE
:012791002225
:10381800E4F52A1239D98F2A7FC1123ACABF011991
:10382800E52AD394D040047F01800B7FC5123ACAA1
:09383800EF75F01CA4FF123B0225
:013841002264
:10386C008F278D288B291227921226947F81123A4A
:10387C00CAEF65656010123A9D7F81123ACA8F6556
:09388C00121B7F1238187F002284
:103273008F278D288B2912373B122C74E518C454E1
:103283000F75F00AA424D0FFE5F03407FEE51854C7
:103293000F7C002FFFEC3EFEC006C007E512C454AE
:1032A3000F75F00AA4FFE512540F2FFBEC35F0FA6B
:1032B300E515FDD007D006120F76123AAC7F002237
:1039C0008F278D288B2912373B122C74AD14AF131F
:0939D000122A4A123AAC7F0022CF
:103352008F278D288B297BFF7A20791CE4FD7F0142
:103362001235FA7BFF7A207925E4FD7F021235FAC5
:103372007BFF7A20792FE4FD7F031235FA7BFF7AF7
:10338200207938E4FD7F041235FA7B087D807F8046
:063392001231CD7F002284
:103398008F278D288B297BFF7A20791CE4FD7F01FC
:1033A8001235FA7BFF7A207925E4FD7F021235FA7F
:1033B8007BFF7A20792FE4FD7F031235FA7BFF7AB1
:1033C800207938E4FD7F041235FA7B087D907F90E0
:0633D8001231CD7F00223E
:1033DE008F278D288B297BFF7A20791CE4FD7F01B6
:1033EE001235FA7BFF7A207925E4FD7F021235FA39
:1033FE007BFF7A20792FE4FD7F031235FA7BFF7A6B
:10340E00207938E4FD7F041235FA7B087D807F88B1
:06341E001231CD7F0022F7
:103424008F278D288B297BFF7A20791CE4FD7F016F
:103434001235FA7BFF7A207925E4FD7F021235FAF2
:103444007BFF7A20792FE4FD7F031235FA7BFF7A24
:10345400207938E4FD7F041235FA7B087D907F984B
:063464001231CD7F0022B1
:10394D00EB60040561800BAB078D2DE4FDAF6112BB
:0F395D001D78121B7FE561B40603E4F5617F015D
:01396C002238
:103768008F278D288B297BFF7A207946E4FD7F01FE
:103778001235FA7BFF7A207953E4FD7F021235FA7D
:0C3788007B087D807F801231CD7F002205
:103794008F278D288B297BFF7A207946E4FD7F01D2
:1037A4001235FA7BFF7A207953E4FD7F021235FA51
:0C37B4007B087D907F901231CD7F0022B9
:1030CB008F278D288B297BFF7A2079607D017F02EA
:1030DB001235FAE5296021E4FD7F8E123ABB7FC7DA
:1030EB00123ACABF0104E4FD80027D017FC6123A89
:1030FB00BB7D807F8E123ABB7FC7123ACA7BFFBF64
:10310B0001067A20796C80047A2079717D037F0324
:06311B001235FA7F0122CB
:062EB6008F278D288B29F7
:102EBC007BFF7A207976E4FD7F031235FAE52960F1
:102ECC0028756401AF63056385282DAB27AD6212AD
:102EDC001D78E563B4CB127563C7E4F5647BFF7AA8
:102EEC0020797DFD7F021235FAE564600E85282D70
:102EFC00AB27AD62AF63121D788020E527600C050F
:102F0C0062E562D394064003756201E528600C15F6
:102F1C0062E562C394015003756206AF6212288C9D
:022F2C007F0123
:012F2E002280
:102D0D008B27AB078D2DE4FD7F28121D787FC31215
:102D1D003ACAEFB40A00507A902D2CF82828730285
:102D2D002D4A022D52022D5A022D62022D6A022DBC
:102D3D0072022D7A022D82022D8A022D927BFF7A4C
:102D4D0020798680467BFF7A207997803E7BFF7ABB
:102D5D002079A880367BFF7A2079B9802E7BFF7A87
:102D6D002079CA80267BFF7A2079DB801E7BFF7A53
:102D7D002079EC80167BFF7A2079FD800E7BFF7A1F
:102D8D0021790E80067BFF7A21791FE4FD7F0412E5
:052D9D0035FA7F012260
:1037C0008F278D288B297BFF7A217930E4FD7F01BB
:1037D0001235FA7BFF7A21793AE4FD7F021235FA3D
:0C37E0007B087D807F801231CD7F0022AD
:1037EC008F278D288B297BFF7A217930E4FD7F018F
:1037FC001235FA7BFF7A21793AE4FD7F021235FA11
:0C380C007B087D907F901231CD7F002260
:103121008F278D288B297BFF7A2179307D017F02C2
:103131001235FAE5296021E4FD7F8E123ABB7FC189
:10314100123ACABF0104E4FD80027D017FC0123A38
:10315100BB7D807F8E123ABB7FC1123ACA7BFFBF13
:1031610001067A20796C80047A2079717D037F03CE
:063171001235FA7F012275
:1036A0008B27AB078D2DE4FD7F32121D78C200758C
:1036B0005E9C12353D7FC5123ACAEF2430F55ED2CA
:1036C0000012353D7FC5123ACAEF75F01CA4FF12F7
:0536D0003B027F012216
:100B9A0001180001150001120001170001130001DC
:050BAA0014000116001B
:0632C300C2B5C2B7D2B78C
:1032C900EFA2E092B6D2B5C2B5A2E192B6D2B5C22A
:1032D900B5A2E292B6D2B5C2B5A2E392B6D2B5C250
:1032E900B5A2E492B6D2B5C2B5A2E592B6D2B5C23C
:1032F900B5A2E692B6D2B5C2B5A2E792B6D2B5C228
:02330900B522EB
:0F3ABB00AE051232C3AF061232C9C2B7D2B5225E
:10357A00D2B6A2B692E0D2B5C2B5A2B692E1D2B59F
:10358A00C2B5A2B692E2D2B5C2B5A2B692E3D2B59C
:10359A00C2B5A2B692E4D2B5C2B5A2B692E5D2B588
:1035AA00C2B5A2B692E6D2B5C2B5A2B692E7FF22DA
:0C3ACA00E4FE1232C312357AC2B7D2B546
:013AD60022CD
:1036D5007F81123ACA8F167F83123ACA8F147F856B
:1036E500123ACA8F137F87123ACA8F127F89123A0C
:1036F500CA8F157F8D123ACA8F187F8B123ACA8FDF
:053705001753170F220D
:10301000E4FC7F81123ACAEF64807058FD7F8E1203
:103020003ABB7D107F8C123ABB7D017F8A123ABB7E
:103030007F88123ABB7F86123ABB1D7F84123ABB4F
:103040007F82123ABB7D507F80123ABB7D057F9014
:10305000123ABBECC3943C500DEC24C0FFE4FD12CB
:103060003ABB0C0C80ED7D097FC4123ABB7D807F9A
:043070008E123ABBC7
:013074002239
:10256D00D29600C2967912786BD8FED9FAD296001F
:10257D00000000000000000000000000000000004E
:10258D00000000000000000000000000000000003E
:10259D0000000000000078DE309605D8FB0225B261
:1025AD00D2050225B7C2050225BF7F067875D8FE74
:1025BD00DFFAD29622D29612256D20050280327452
:1025CD00CC122608744412260812268BD296122598
:1025DD006D74CC12260874BE12260812262BE50740
:1025ED008506F0A2F013A2F113A2F213A2F313F5D4
:1025FD00072005047FFF8002AF07227A08C3C29629
:10260D007B24DBFE1392967BC0DBFED2960000008E
:10261D00000000000000000000DAE3D296227C02E8
:10262D0079077A08C3D29600000000000000000070
:10263D00000000000000000000000000000000008D
:01264D00008C
:10264E00C296000000000000000000000000000024
:10265E00000000000000000000000000000000006C
:10266E00000000000000000000D2967B36DBFEA2C8
:10267E00967B8ADBFE13DAABF719DCA5227F067E8A
:06268E00FFDEFEDFFA2270
:10346A00E4F57175713CB2907F587E02123AD71515
:10347A0071E571D3940050EE757164B2907FE07E6D
:10348A0001123AD71571E571D3940050EE75716443
:10349A00B2907FB47E00123AD71571E571D39400C9
:0434AA0050EED2907E
:0134AE0022FB
:1034AF00E4F572757232B2907F587E02123AD715D8
:1034BF0072E572D3940050EE757264B2907F2C7ED9
:1034CF0001123AD71572E572D3940050EE7572322D
:1034DF00B2907F587E02123AD71572E572D39400DC
:0434EF0050EED29039
:0134F30022B6
:102FA100E4F52B752B96B2907F907E01123AD715DE
:102FB1002BE52BD3940050EE7FF47E0112396D7511
:102FC1002B96B2907F907E01123AD7152BE52BD329
:102FD100940050EE7FF47E0112396D752B96B290FC
:102FE1007F907E01123AD7152BE52BD3940050EE3A
:102FF1007FF47E0112396D752BFAB2907FC87E0085
:0E300100123AD7152BE52BD3940050EED29047
:01300F00229E
:10398A00E4F527752764B2907F2C7E01123AD71589
:0A399A0027E527D3940050EED290E9
:0139A4002200
:10384200E4F56DF56E756D09756EC4B2907FB47E48
:1038520000123AD7E56E156E7002156DD3E56E94BF
:0938620000E56D940050E4D290E1
:01386B00223A
:103A2300E4F52753070775BC4000EF42BC0043BCD5
:083A3300807F017E0002396D65
:1039D900E4FF43BC0800000000EF7007E5BC541089
:0839E900FF80F653BCE7AFBDFF
:0139F10022B3
:1035BA0025642D253032642D253032640053756E12
:1035CA00204D6F6E205475652057656420546875C8
:1035DA002046726920536174002020200020202098
:1035EA0020002534640000000000000000000000F4
:0C0F76008E2A8F2B8C2C8D2D8A2E8B2F19
:100F8200E4F530F531F532F533753411F535F536D2
:100F920078377C00FD7BFF7A3579F0FE7F0A120CF0
:100FA20092852A41852B42852C43852D44E5446454
:100FB2000245437035AE41AF42FC7D04120D17ED80
:100FC2004C700EAE41AF42FC7D64120D17ED4C70B9
:100FD2000FAE41AF427C017D90120D17ED4C7005B2
:100FE20075361D802D75361C8028E5446404454302
:100FF2006018E544640645436010E54464094543CE
:101002006008E544640B4543700575361E80037520
:10101200361FAE41EE3395E0FDFCE54224FFFFEEC4
:1010220034FFFEED34FFFDEC34FFFCE47B04FAF9FF
:10103200F81234F4C004C005C006C007AE41EE3356
:1010420095E0FDFCE54224FFFFEE34FFFEED34FFA8
:10105200FDEC34FFFCE47B6D7A01F9F8120D4DD002
:1010620003D002D001D000EF2BFFEE3AFEED39FDA6
:10107200EC38FCC004C005C006C007AE41EE339593
:10108200E0FDFCE54224FFFFEE34FFFEED34FFFD00
:10109200EC34FFFCE47B64FAF9F81234F4A804A9F6
:1010A20005AA06AB07D007D006D005D004C3EF9B34
:1010B200FFEE9AFEED99FDEC98FCC004C005C00657
:1010C200C007AE41EE3395E0FDFCE54224FFFFEEA2
:1010D20034FFFEED34FFFDEC34FFFCE47B907A013B
:1010E200F9F81234F4D003D002D001D000EF2BF57E
:1010F20048EE3AF547ED39F546EC38F545753000DE
:10110200753101C3E5319544E5436480F8E5306407
:101112008098400302119EE531640245307037AE7B
:1011220041AF42FC7D04120D17ED4C700EAE41AF83
:1011320042FC7D64120D17ED4C700FAE41AF427C44
:10114200017D90120D17ED4C7006E548241D80308C
:10115200E548241C802AE531640445306018E531F5
:10116200640645306010E531640945306008E531B8
:10117200640B45307006E548241E8004E548241FB0
:10118200F548E43547F547E43546F546E43545F597
:10119200450531E53170020530021105E5482401AB
:1011A200FFE43547FEE43546FDE43545FCE47B07C4
:1011B200FAF9F81234F4AC00AD01AE02AF038F4C71
:1011C2008E4B8D4A8C497550FF7551357552BA85D3
:1011D2004153854254854355854456852E57852F64
:1011E200587B007A0079371213557B007A007937E1
:1011F200E4F5517D2A122B0C7550FF7B07E4FD7F2D
:10120200081232207BFF7A3579C775510A7D0B129D
:101212002B0C7BFF7A3579E3755111E4FD122B0C0F
:1012220074082535F535E4F530F531AE30AF31EEE1
:101232003395E0FDFCAB4CAA4BA94AA849D3120D49
:101242009C401E7BFF7A3579E7755113AD35122B21
:101252000C740F2535F5350531E53170CE0530803A
:10126200CA753200753301D3E53395367480F8655B
:10127200329840030212F87E007F0A7D007B007ADA
:10128200007937120DC47550FF7551357552EC85D2
:1012920032538533547B007A0079371213557B0021
:1012A2007A007937853451AD35122B0C740F253500
:1012B200F535AE32EE3395E0FDFCE533254CFFEE1D
:1012C200354BFEED354AFDEC3549FCE47B07FAF976
:1012D200F81234F4AC00AD01AE02AF03EC4D4E4F48
:1012E200700974082534F5347535080533E5337013
:0612F20002053202126940
:0112F80022D3
:100BAF0010743F065B4F666D7D077F6F777C395EF4
:020BBF0079714A
:0639F20085834C85824D27
:1039F8008E468F47AF031573A873A64DAB05AD4729
:033A080002307514
:0639A50085834C85824D74
:1039AB008E468F471573A873A64D1573A8737601B2
:0539BB00AF4702298462
:10363400E6F54008E6F5417890E6F54208E6F543FC
:04364400AF35AE34BC
:10364800AE05AD03EF2DFDEE25411573A873A64316
:103658001573A87376011573A873F6AB05AD06024A
:02366800243DFF
:10390A007B057A007D147C007F0A7E0012366AE409
:10391A00FDFC7F01FE123A50E47896F608F608F6A6
:03392A0008F6227A
:10366A007884A60608A60708A60408A605788CA6E4
:10367A000208A603EF24FE7889F6EE34FF18F6ED69
:10368A0024FDFFEC34FFFE7C007D02120D17788AC0
:06369A00A60608A60722A7
:103A3B00788CA60208A6037888A60608A60708A60F
:053A4B000408A605229D
:06165500AD35AC347E004F
:0C165B008C3C8D3D8A3E8B3F8F828E833D
:10166700E5414540700A7899E61846700302196209
:10167700788CE6FE08E6FF7C007D02120D178E448B
:101687008F45AE83AF82EE6003021962EFB40700A5
:1016970040030219629016A3F82828730216B802AD
:1016A70018EC0218EC02172002188402188402179B
:1016B70099E4F542F543C3E543788D9618E66480CF
:1016C700F8E5426480984003021962E53D2543FF2F
:1016D700E53C3542FEE53D788926CDE53C1836CD1B
:1016E70024FFCD34FFFCC3ED9543FDEC9542FCE5AB
:1016F7003F2543FBE53E3542FAE541454060047826
:101707009080027894E6F58308E6F5821239F205AF
:1017170043E54370A10542809DE4F542F543788C8B
:10172700E6FA08E6FBC3E5439BEA6480F8E5426412
:1017370080984003021962E53D2543FFE53C3542A9
:10174700FEE53D788926CDE53C1836CD24FFCD341E
:10175700FFFCC3ED9543FDEC9542FCE53F2BCBE544
:101767003E3ACB24FFCB34FFFAC3EB9543FBEA9514
:1017770042FAE54145406004789080027894E6F5A6
:101787008308E6F5821239F20543E5437090054276
:10179700808CE4F542F543E5452401FFE43544FE3A
:1017A700C3E5439FEE6480F8E5426480985057E5AF
:1017B7003D2543FFE53C3542FEE53D788926CDE5ED
:1017C7003C1836CD24FFCD34FFFCC3ED9543FDEC2B
:1017D7009542FCE53F2545FBE53E3544FAC3EB95CD
:1017E70043FBEA9542FAE541454060047890800260
:1017F7007894E6F58308E6F5821239F20543E54366
:10180700709505428091754200754301E5452401B5
:10181700FFE43544FEC3E5439FEE6480F8E5426488
:1018270080984003021962E53D2543FFE53C3542B8
:10183700FEE53D788926CDE53C1836CD24FFCD342D
:10184700FFFCC3ED9543FDEC9542FCE53F2545FBC9
:10185700E53E3544FAE5432BFBE5423AFAE54145D7
:10186700406004789080027894E6F58308E6F58274
:101877001239F20543E54370930542808FE4F54240
:10188700F543C3E543788D9618E66480F8E542642E
:1018970080984003021962E53D2543FFE53C354248
:1018A700FEE53F2543FDE53E3542FCE53F788B26C7
:1018B700CBE53E1836CB24FFCB34FFFAC3EB954379
:1018C700FBEA9542FAE5414540600478908002784A
:1018D70094E6F58308E6F5821239A50543E54370DA
:1018E700A10542809DE4F542F543788CE6FE08E6C3
:1018F700FFC3E5439FEE6480F8E542648098505B40
:10190700E53D2FCFE53C3ECF24FFCF34FFFEC3EFAD
:101917009543FFEE9542FEE53F2543FDE53E354203
:10192700FCE53F788B26CBE53E1836CB24FFCB343E
:10193700FFFAC3EB9543FBEA9542FAE54145406060
:1019470004789080027894E6F58308E6F5821239E8
:0B195700A50543E54370930542808F17
:011962002262
:0C1963008E328F338C348D358A368B37F2
:10196F00E4F538F539E5326003021A2FE53324E048
:10197F007003021A2024F37003021A2724F3603035
:10198F00240C6003021A2F788AE6FE08E6FF25373B
:10199F00CDE5363ECD2FFFED3ECF2403CF3400FEF5
:1019AF0008E6FA08E6FBC3EF9BFDEE9AFC18805998
:1019BF00788CE6FA08E6FBC3788BE69BFF18E69A6D
:1019CF00FE7C007D02120D17E5372402CDE435367B
:1019DF00CD2FCD3EFC788C123634788CE6FA08E6A3
:1019EF00FBC3788BE69BFF18E69AFE7C007D021204
:1019FF000D17E537788B26CDE5361836CD2401CD7A
:101A0F003400CD2FCD3EFC788C123634788C021BEF
:101A1F0079E4F538F5398015753800753940800D42
:101A2F00E533540F2474F8E6753800F539E535249D
:101A3F0001FDE43534FC754000E5395401F541AB47
:101A4F0037AA36E4FFFE12165BE535788926CFE517
:101A5F00341836CF2402CF3400FEC3EF788D96FDB5
:101A6F00EE1896FCE5372401FBE43536FA75400095
:101A7F00E5395402F5417F017E0012165BE535789A
:101A8F008926CFE5341836CF2402CF3400FEC3EFBA
:101A9F00788D96FDEE1896FCE5371826CFE53618AB
:101AAF0036CF2402FBE43FFA754000E5395404F5C4
:101ABF00417F027E0012165BE5352401FDE43534CB
:101ACF00FC788AE6FE08E6FF2537CBE5363ECB2FBE
:101ADF00FFEB3EFEC3EF788D96FFEE1896CF2403F3
:101AEF00FBE43FFA754000E5395408F5417F037E6A
:101AFF000012165BE537788B26CFE5361836CF24E4
:101B0F0002FBE43FFA754000E5395410F5417F04BC
:101B1F00121655E5372401FBE43536FA754000E51A
:101B2F00395420F5417F05121655788CE6FE08E6EC
:101B3F00FF7C007D02120D17E537788B26CDE53639
:101B4F001836CDC39FFFED9ECF2401FBE43FFAE58E
:101B5F00352401FDE43534FC754000E5395440F57A
:0F1B6F00417F067E0012165B7884E6FE08E6FFD3
:011B7E002244
:102BC0008E088F098C0A8D0B8A0C8B0DE509250D5B
:102BD000CFE508350CCF24FFFDEF34FFFCE50B25D6
:102BE0000FCFE50A350ECF24FFFBEF34FFFA851037
:102BF0004C85114DAF091239F8E509250DCFE508CF
:102C0000350CCF24FFFDEF34FFFC85104C85114DB2
:102C1000AB0BAA0AAF09AE081239F8E50B2401FD87
:102C2000E4350AFCE50B250FCFE50A350ECF24FE6F
:102C3000FBEF34FFFA85104C85114DAF09AE081239
:102C400039ABE509250DCFE508350CCF24FFCF348E
:102C5000FFFEE50B2401FDE4350AFCE50B250FCB57
:102C6000E50A350ECB24FECB34FFFA85104C8511D6
:042C70004D0239AB2D
:103177008B198A1A891B8C1C8D1DAB19AA1AA91BBE
:10318700120CDA6034051BE51B7002051A14F912DC
:103197000CDAFF3395E0FEAB1FAA1EAD1DAC1C1267
:1031A70019637896E6FC08E62FFFEE3CFEEF251D37
:1031B700F51DEE351CF51C80C1C3E51D789796FFFC
:0631C700E51C1896FE2233
:083AE2007896A60608A607224B
:083AEA007898A60608A6072241
:103A50007890A60608A60708A60608A60708A604E2
:043A600008A605228D
:103A64007890A60608A60708A60408A60508A602D4
:043A740008A603227B
:083AF2007884E6FE08E6FF22DD
:083AFA007886E6FE08E6FF22D3
:10330B00E4F56FF570120CDAFF602F642E6004EF9A
:10331B00B43A04788C80027884E6FE08E6FFEF78F6
:10332B009726FFEE1836FEEF2570F570EE356FF52C
:10333B006F740129F9E43AFA80CBC3E5707897965C
:06334B00FFE56F1896FE7D
:013351002259
:1038950012390AE4FDFC7FFFFE123A507F027E00DA
:1038A500123AE2E4FFFE123AEA7B057A007D237CB8
:0838B500007F117E0002366A5B
:042A4A008F2A8D2B17
:102A4E00752C00752D05752E00752F1DE4F530F5CE
:102A5E0031E52F24FFFFE52E34FFFEAB2DAA2C7D92
:102A6E003C7C0012366A753000753102E52AC4547A
:102A7E000FFF7E00AB31AA30E4FDFC121963E52A8C
:102A8E00540FFF7E00AB31AA30AD2FAC2E1219635E
:102A9E00E52F25E0FFE52E33FEEF2401FDE43EFC9D
:102AAE00AB31AA307F3A7E00121963E52BC4540F66
:102ABE00FF7E00C006C007E52F25E0FFE52E33FEA2
:102ACE00E52D2403CDE4352CCD2FCD3EFCD007D003
:102ADE0006AB31AA30121963AE2EAF2F7C007D03E8
:102AEE00120D05E52D2403CDE4352CCD2FCD3EFC66
:0E2AFE00E52B540FFF7E00AB31AA30021963A6
:102DAE000222CAE493A3F8E493A34003F68001F24F
:102DBE0008DFF48029E493A3F85407240CC8C33326
:102DCE00C4540F4420C8834004F456800146F6DFF5
:102DDE00E4800B0102040810204080900774E47E0A
:102DEE00019360BCA3FF543F30E509541FFEE493EA
:102DFE00A360010ECF54C025E060A840B8E493A3B1
:102E0E00FAE493A3F8E493A3C8C582C8CAC583CADB
:102E1E00F0A3C8C582C8CAC583CADFE9DEE780BE93
:010BC1000033
:100BC200E709F608DFFA8046E709F208DFFA803E15
:100BD20088828C83E709F0A3DFFA8032E309F60802
:100BE200DFFA8078E309F208DFFA807088828C836A
:100BF200E309F0A3DFFA806489828A83E0A3F6081E
:100C0200DFFA805889828A83E0A3F208DFFA804CF7
:100C120080D280FA80C680D4806980F280338010CE
:100C220080A680EA809A80A880DA80E280CA803337
:100C320089828A83ECFAE493A3C8C582C8CCC583AF
:100C4200CCF0A3C8C582C8CCC583CCDFE9DEE7807F
:100C52000D89828A83E493A3F608DFF9ECFAA9F0FE
:100C6200EDFB2289828A83ECFAE0A3C8C582C8CC54
:100C7200C583CCF0A3C8C582C8CCC583CCDFEADE6D
:100C8200E880DB89828A83E493A3F208DFF980CCCF
:100C920088F0EF60010E4E60C388F0ED2402B404C8
:100CA2000050B9F582EB2402B4040050AF2323456F
:060CB2008223900C127376
:100CB800C2D530F707B2D563F0FF05F030E70CB2C4
:100CC800D5F4048463F0FF05F080018430D502F484
:020CD8000422F4
:100CDA00BB010689828A83E0225002E722BBFE0218
:090CEA00E32289828A83E493224B
:100CF300BB010689828A83F0225002F722BBFE01E0
:020D0300F322D9
:100D0500EF8DF0A4A8F0CF8CF0A428CE8DF0A42E02
:020D1500FE22BC
:100D1700C2D5EC30E709B2D5E4C39DFDE49CFCEEF7
:100D270030E715B2D5E4C39FFFE49EFE120E1DC344
:100D3700E49DFDE49CFC8003120E1D30D507C3E43F
:060D47009FFFE49EFE2266
:100D4D00E88FF0A4CC8BF0A42CFCE98EF0A42CFC45
:100D5D008AF0EDA42CFCEA8EF0A4CDA8F08BF0A4C3
:100D6D002DCC3825F0FDE98FF0A42CCD35F0FCEB22
:100D7D008EF0A4FEA9F0EB8FF0A4CFC5F02ECD39E7
:0F0D8D00FEE43CFCEAA42DCE35F0FDE43CFC2254
:1034F400C2D5E830E70FB2D5E4C39BFBE49AFAE403
:1035040099F9E498F8EC30E717B2D512352A120E7F
:10351400AEE4C39BFBE49AFAE499F9E498F88003D7
:10352400120EAE30D50DE4C39FFFE49EFEE49DFD74
:04353400E49CFC22F5
:100D9C00EB9FF5F0EA9E42F0E99D42F0EC6480C8CE
:060DAC0064809845F0226E
:0C0DB200A42582F582E5F03583F583224C
:060DBE008A838982E473C0
:1012F900E55C2450F8E6055C22784D300702785009
:10130900E475F001120F40020CDA2000EB7F2ED2B7
:10131900008018EF540F2490D43440D4FF30040BCC
:10132900EF24BFB41A0050032461FFE55D60021584
:101339005D0560E5607002055F30070D784DE47565
:10134900F001120F40EF020CF30238BD7403D2070B
:101359008003E4C207F55C8B4D8A4E894FE4F55D45
:10136900F55FF560E55D60077F2012133480F57540
:101379005EFFC201C200C202C203C205C206C208A0
:10138900121302FF700D3007057F00121345AF607D
:10139900AE5F22B4255FC2D5C204121302FF24D066
:1013A900B40A00501A75F00A785D30D50508B6FF01
:1013B9000106C6A426F620D5047002D20380D924DA
:1013C900CFB41A00EF5004C2E5D204021545D20188
:1013D90080C6D20080C0D20280BCD2D580BAD205E4
:1013E90080B47F201213342002077401B55D0040D8
:1013F900F11212F9FF12133402136DD208D20680CA
:10140900951212F9FB1212F9FA1212F9F94A4B70F4
:101419000679167A167BFF20022EE55D602A7E008A
:101429008E82758300120DF060060EEE655E70F017
:10143900C2D5EBC0E0EAC0E0E9C0E0EE12158CD0FD
:10144900E0F9D0E0FAD0E0FB120CDAFF60AAEBC0B9
:10145900E0EAC0E0E9C0E0121334D0E02401F9D099
:10146900E03400FAD0E0FBE55E0460DCD55ED980AB
:10147900877BFF7A157988D202809C79108002795E
:1014890008C206C2088008D2D5790A8004790AC23E
:10149900D5E55E047002F55EE4FAFDFEFF1212F96D
:1014A900FC7B082001131212F9FD7B1030000A128F
:1014B90012F9FE1212F9FF7B20EC3382D592D55036
:1014C90013C3E43000069FFFE49EFEE42001039D60
:1014D900FDE49CFCE4CBF8C201EC700CCFCECDCC82
:1014E900E824F8F870F38017C3EF33FFEE33FEED0D
:1014F90033FDEC33FCEB33FB994002FB0FD8E9EBEE
:10150900300105F8D0E0C448B201C0E00AEC4D4E04
:101519004F78207B0070C2EAB55E0040BCC0E01283
:10152900158ED0F0D0E0200104C4C0E0C4B201C0DF
:10153900F012131DD0F0D5F0EB02136D120F5014F9
:101549000A5314845813DB4C13D74214884F149050
:0F1559004414904913F043149655147A46147AAB
:1015680045147A4716365013DF2D13E32E14062B35
:1015780013E723140420161F2A139F48000013FEA4
:101588003F3F3F00790AA2D5200314300509B9105E
:10159800020404B9080104A2D5200602500104205F
:1015A80002689202B55D005034C0E07F2030031914
:1015B8007F30A20272067205500F1215E5C202C2F0
:1015C80006C205C2087F30800F300503E9C0E0126B
:1015D8001334300503D0E0F9D0E0B55DCC30051701
:1015E8007F30B9100C1213347F583004077F78808D
:1015F80003B908031213343002057F2D0213347F18
:10160800202008F87F2B2006F322920280CF286E34
:10161800756C6C2900D2011212F93001F8C20178F8
:101628005D30D50108F602139F2D50434958121218
:10163800F92403B405004001E490163193121325F0
:0D164800743A121325D203755D0402148458
:100DC400EF4E6012EF60010EEDBB010B89828A8346
:100DD400F0A3DFFCDEFA2289F05007F709DFFCA953
:0C0DE400F022BBFEFCF309DFFCA9F022AA
:100DF000BB010CE58229F582E5833AF583E02250B8
:100E000006E92582F8E622BBFE06E92582F8E22201
:0D0E1000E58229F582E5833AF583E493221B
:100E1D00BC000BBE0029EF8DF084FFADF022E4CCB9
:100E2D00F875F008EF2FFFEE33FEEC33FCEE9DEC82
:100E3D00984005FCEE9DFE0FD5F0E9E4CEFD22EDC8
:100E4D00F8F5F0EE8420D21CFEADF075F008EF2F12
:100E5D00FFED33FD4007985006D5F0F222C398FD03
:050E6D000FD5F0EA22A0
:100E720075F008758200EF2FFFEE33FECD33CDCC37
:100E820033CCC58233C5829BED9AEC99E5829840BA
:100E92000CF582EE9BFEED9AFDEC99FC0FD5F0D697
:100EA200E4CEFBE4CDFAE4CCF9A88222B800C1B9C1
:100EB2000059BA002DEC8BF084CFCECDFCE5F0CBFF
:100EC200F97818EF2FFFEE33FEED33FDEC33FCEB38
:100ED20033FB10D703994004EB99FB0FD8E5E4F9F3
:100EE200FA227818EF2FFFEE33FEED33FDEC33FCE0
:100EF200C933C910D7059BE99A4007EC9BFCE99AD4
:100F0200F90FD8E0E4C9FAE4CCFB2275F010EF2F18
:100F1200FFEE33FEED33FDCC33CCC833C810D70718
:100F22009BEC9AE899400AED9BFDEC9AFCE899F853
:0E0F32000FD5F0DAE4CDFBE4CCFAE4C8F922E6
:100F4000FAE6FB0808E6F925F0F618E6CA3AF622B2
:100F5000D083D082F8E4937012740193700DA3A330
:100F600093F8740193F5828883E473740293686044
:060F7000EFA3A3A380DF44
:1038BD00EFB40A07740D1238C8740A309811A8991C
:1038CD00B8130CC2983098FDA899C298B811F6306B
:0738DD0099FDC299F5992243
:00000001FF
